{
  "address": "0x7953b1fd417113E82AC66266ec4B7327eE67283A",
  "abi": [
    {
      "inputs": [
        {
          "internalType": "address",
          "name": "_owner_address",
          "type": "address"
        },
        {
          "internalType": "address[]",
          "name": "_starting_addresses",
          "type": "address[]"
        }
      ],
      "stateMutability": "nonpayable",
      "type": "constructor"
    },
    {
      "anonymous": false,
      "inputs": [
        {
          "indexed": false,
          "internalType": "address",
          "name": "oldOwner",
          "type": "address"
        },
        {
          "indexed": false,
          "internalType": "address",
          "name": "newOwner",
          "type": "address"
        }
      ],
      "name": "OwnerChanged",
      "type": "event"
    },
    {
      "anonymous": false,
      "inputs": [
        {
          "indexed": false,
          "internalType": "address",
          "name": "newOwner",
          "type": "address"
        }
      ],
      "name": "OwnerNominated",
      "type": "event"
    },
    {
      "inputs": [],
      "name": "PRECISE_PRICE_PRECISION",
      "outputs": [
        {
          "internalType": "uint256",
          "name": "",
          "type": "uint256"
        }
      ],
      "stateMutability": "view",
      "type": "function"
    },
    {
      "inputs": [],
      "name": "PRICE_MISSING_MULTIPLIER",
      "outputs": [
        {
          "internalType": "uint256",
          "name": "",
          "type": "uint256"
        }
      ],
      "stateMutability": "view",
      "type": "function"
    },
    {
      "inputs": [],
      "name": "PRICE_PRECISION",
      "outputs": [
        {
          "internalType": "uint256",
          "name": "",
          "type": "uint256"
        }
      ],
      "stateMutability": "view",
      "type": "function"
    },
    {
      "inputs": [],
      "name": "acceptOwnership",
      "outputs": [],
      "stateMutability": "nonpayable",
      "type": "function"
    },
    {
      "inputs": [],
      "name": "combo_oracle",
      "outputs": [
        {
          "internalType": "contract ComboOracle",
          "name": "",
          "type": "address"
        }
      ],
      "stateMutability": "view",
      "type": "function"
    },
    {
      "inputs": [],
      "name": "frax_address",
      "outputs": [
        {
          "internalType": "address",
          "name": "",
          "type": "address"
        }
      ],
      "stateMutability": "view",
      "type": "function"
    },
    {
      "inputs": [],
      "name": "fxs_address",
      "outputs": [
        {
          "internalType": "address",
          "name": "",
          "type": "address"
        }
      ],
      "stateMutability": "view",
      "type": "function"
    },
    {
      "inputs": [
        {
          "internalType": "uint256",
          "name": "token_id",
          "type": "uint256"
        }
      ],
      "name": "getUniV3NFTBasicInfo",
      "outputs": [
        {
          "components": [
            {
              "internalType": "address",
              "name": "token0",
              "type": "address"
            },
            {
              "internalType": "address",
              "name": "token1",
              "type": "address"
            },
            {
              "internalType": "uint24",
              "name": "fee",
              "type": "uint24"
            },
            {
              "internalType": "int24",
              "name": "tickLower",
              "type": "int24"
            },
            {
              "internalType": "int24",
              "name": "tickUpper",
              "type": "int24"
            },
            {
              "internalType": "uint128",
              "name": "liquidity",
              "type": "uint128"
            },
            {
              "internalType": "uint256",
              "name": "token0_decimals",
              "type": "uint256"
            },
            {
              "internalType": "uint256",
              "name": "token1_decimals",
              "type": "uint256"
            },
            {
              "internalType": "uint256",
              "name": "lowest_decimals",
              "type": "uint256"
            }
          ],
          "internalType": "struct ComboOracle_UniV2_UniV3.UniV3NFTBasicInfo",
          "name": "",
          "type": "tuple"
        }
      ],
      "stateMutability": "view",
      "type": "function"
    },
    {
      "inputs": [
        {
          "internalType": "uint256",
          "name": "token_id",
          "type": "uint256"
        }
      ],
      "name": "getUniV3NFTValueInfo",
      "outputs": [
        {
          "components": [
            {
              "internalType": "uint256",
              "name": "token0_value",
              "type": "uint256"
            },
            {
              "internalType": "uint256",
              "name": "token1_value",
              "type": "uint256"
            },
            {
              "internalType": "uint256",
              "name": "total_value",
              "type": "uint256"
            },
            {
              "internalType": "string",
              "name": "token0_symbol",
              "type": "string"
            },
            {
              "internalType": "string",
              "name": "token1_symbol",
              "type": "string"
            },
            {
              "internalType": "uint256",
              "name": "liquidity_price",
              "type": "uint256"
            }
          ],
          "internalType": "struct ComboOracle_UniV2_UniV3.UniV3NFTValueInfo",
          "name": "",
          "type": "tuple"
        }
      ],
      "stateMutability": "view",
      "type": "function"
    },
    {
      "inputs": [
        {
          "internalType": "address",
          "name": "_owner",
          "type": "address"
        }
      ],
      "name": "nominateNewOwner",
      "outputs": [],
      "stateMutability": "nonpayable",
      "type": "function"
    },
    {
      "inputs": [],
      "name": "nominatedOwner",
      "outputs": [
        {
          "internalType": "address",
          "name": "",
          "type": "address"
        }
      ],
      "stateMutability": "view",
      "type": "function"
    },
    {
      "inputs": [],
      "name": "owner",
      "outputs": [
        {
          "internalType": "address",
          "name": "",
          "type": "address"
        }
      ],
      "stateMutability": "view",
      "type": "function"
    },
    {
      "inputs": [],
      "name": "router",
      "outputs": [
        {
          "internalType": "contract IUniswapV2Router02",
          "name": "",
          "type": "address"
        }
      ],
      "stateMutability": "view",
      "type": "function"
    },
    {
      "inputs": [
        {
          "internalType": "address",
          "name": "_combo_oracle",
          "type": "address"
        }
      ],
      "name": "setComboOracle",
      "outputs": [],
      "stateMutability": "nonpayable",
      "type": "function"
    },
    {
      "inputs": [
        {
          "internalType": "address",
          "name": "_timelock_address",
          "type": "address"
        }
      ],
      "name": "setTimelock",
      "outputs": [],
      "stateMutability": "nonpayable",
      "type": "function"
    },
    {
      "inputs": [
        {
          "internalType": "address",
          "name": "pair_address",
          "type": "address"
        }
      ],
      "name": "uniV2LPBasicInfo",
      "outputs": [
        {
          "components": [
            {
              "internalType": "address",
              "name": "lp_address",
              "type": "address"
            },
            {
              "internalType": "string",
              "name": "token_name",
              "type": "string"
            },
            {
              "internalType": "string",
              "name": "token_symbol",
              "type": "string"
            },
            {
              "internalType": "address",
              "name": "token0",
              "type": "address"
            },
            {
              "internalType": "address",
              "name": "token1",
              "type": "address"
            },
            {
              "internalType": "uint256",
              "name": "token0_decimals",
              "type": "uint256"
            },
            {
              "internalType": "uint256",
              "name": "token1_decimals",
              "type": "uint256"
            },
            {
              "internalType": "uint256",
              "name": "token0_reserves",
              "type": "uint256"
            },
            {
              "internalType": "uint256",
              "name": "token1_reserves",
              "type": "uint256"
            },
            {
              "internalType": "uint256",
              "name": "lp_total_supply",
              "type": "uint256"
            }
          ],
          "internalType": "struct ComboOracle_UniV2_UniV3.UniV2LPBasicInfo",
          "name": "",
          "type": "tuple"
        }
      ],
      "stateMutability": "view",
      "type": "function"
    },
    {
      "inputs": [
        {
          "internalType": "address",
          "name": "lp_token_address",
          "type": "address"
        }
      ],
      "name": "uniV2LPPriceInfo",
      "outputs": [
        {
          "components": [
            {
              "internalType": "uint256",
              "name": "precise_price",
              "type": "uint256"
            },
            {
              "internalType": "uint256",
              "name": "short_price",
              "type": "uint256"
            },
            {
              "internalType": "string",
              "name": "token_symbol",
              "type": "string"
            },
            {
              "internalType": "string",
              "name": "token_name",
              "type": "string"
            },
            {
              "internalType": "string",
              "name": "token0_symbol",
              "type": "string"
            },
            {
              "internalType": "string",
              "name": "token1_symbol",
              "type": "string"
            }
          ],
          "internalType": "struct ComboOracle_UniV2_UniV3.UniV2PriceInfo",
          "name": "",
          "type": "tuple"
        }
      ],
      "stateMutability": "view",
      "type": "function"
    },
    {
      "inputs": [
        {
          "internalType": "address",
          "name": "lp_token_address",
          "type": "address"
        }
      ],
      "name": "uniV2LPPriceInfoViaReserves",
      "outputs": [
        {
          "components": [
            {
              "internalType": "uint256",
              "name": "precise_price",
              "type": "uint256"
            },
            {
              "internalType": "uint256",
              "name": "short_price",
              "type": "uint256"
            },
            {
              "internalType": "string",
              "name": "token_symbol",
              "type": "string"
            },
            {
              "internalType": "string",
              "name": "token_name",
              "type": "string"
            },
            {
              "internalType": "string",
              "name": "token0_symbol",
              "type": "string"
            },
            {
              "internalType": "string",
              "name": "token1_symbol",
              "type": "string"
            }
          ],
          "internalType": "struct ComboOracle_UniV2_UniV3.UniV2PriceInfo",
          "name": "",
          "type": "tuple"
        }
      ],
      "stateMutability": "view",
      "type": "function"
    },
    {
      "inputs": [],
      "name": "univ3_factory",
      "outputs": [
        {
          "internalType": "contract IUniswapV3Factory",
          "name": "",
          "type": "address"
        }
      ],
      "stateMutability": "view",
      "type": "function"
    },
    {
      "inputs": [],
      "name": "univ3_positions",
      "outputs": [
        {
          "internalType": "contract INonfungiblePositionManager",
          "name": "",
          "type": "address"
        }
      ],
      "stateMutability": "view",
      "type": "function"
    },
    {
      "inputs": [],
      "name": "univ3_router",
      "outputs": [
        {
          "internalType": "contract ISwapRouter",
          "name": "",
          "type": "address"
        }
      ],
      "stateMutability": "view",
      "type": "function"
    }
  ],
  "transactionHash": "0x532d02c1fc975b0d784c2bd265a8f700942f451480b819a6d7bdb6ac1cd28e78",
  "args": [
    "0xEEF54910b5200F94e91e4A9A891ca95797B6fbf8",
    [
      "0x7562F525106F5d54E891e005867Bf489B5988CD9",
      "0xae8871A949F255B12704A98c00C2293354a36013",
      "0x354bfCF61fF58289C31205d840dDCaf86f15e966",
      "0x17C83E2B96ACfb5190d63F5E46d93c107eC0b514",
      "0x0000000000000000000000000000000000000000",
      "0x0000000000000000000000000000000000000000",
      "0x0000000000000000000000000000000000000000"
    ]
  ],
  "numDeployments": 1,
  "solcInputHash": "83b40aa09bf24b5588396b3cfaf7141c",
  "bytecode": "0x6080604052670de0b6b3a7640000600a55620f4240600b5564e8d4a51000600c553480156200002d57600080fd5b50604051620037f3380380620037f383398101604081905262000050916200031b565b816001600160a01b038116620000ac5760405162461bcd60e51b815260206004820152601960248201527f4f776e657220616464726573732063616e6e6f74206265203000000000000000604482015260640160405180910390fd5b600080546001600160a01b0319166001600160a01b03831690811782556040805192835260208301919091527fb532073b38c83145e3e5135377a08bf9aab55bc0fd7c1179cd4fb995d2a5159c910160405180910390a150806000815181106200011a576200011a62000404565b6020026020010151600360006101000a8154816001600160a01b0302191690836001600160a01b03160217905550806001815181106200015e576200015e62000404565b6020026020010151600460006101000a8154816001600160a01b0302191690836001600160a01b0316021790555080600281518110620001a257620001a262000404565b6020026020010151600560006101000a8154816001600160a01b0302191690836001600160a01b0316021790555080600381518110620001e657620001e662000404565b6020026020010151600660006101000a8154816001600160a01b0302191690836001600160a01b03160217905550806004815181106200022a576200022a62000404565b6020026020010151600760006101000a8154816001600160a01b0302191690836001600160a01b03160217905550806005815181106200026e576200026e62000404565b6020026020010151600860006101000a8154816001600160a01b0302191690836001600160a01b0316021790555080600681518110620002b257620002b262000404565b6020026020010151600960006101000a8154816001600160a01b0302191690836001600160a01b0316021790555050506200041a565b80516001600160a01b03811681146200030057600080fd5b919050565b634e487b7160e01b600052604160045260246000fd5b600080604083850312156200032f57600080fd5b6200033a83620002e8565b602084810151919350906001600160401b03808211156200035a57600080fd5b818601915086601f8301126200036f57600080fd5b81518181111562000384576200038462000305565b8060051b604051601f19603f83011681018181108582111715620003ac57620003ac62000305565b604052918252848201925083810185019189831115620003cb57600080fd5b938501935b82851015620003f457620003e485620002e8565b84529385019392850192620003d0565b8096505050505050509250929050565b634e487b7160e01b600052603260045260246000fd5b6133c9806200042a6000396000f3fe608060405234801561001057600080fd5b50600436106101775760003560e01c80638292fd84116100d8578063bdacb3031161008c578063e194c7c511610066578063e194c7c51461037f578063e5c0f84c14610392578063f887ea40146103a557600080fd5b8063bdacb3031461032c578063c8fae1a51461033f578063d40c61a11461035f57600080fd5b806395082d25116100bd57806395082d25146102e35780639a10e958146102ec578063b497d8ca1461030c57600080fd5b80638292fd84146102a35780638da5cb5b146102c357600080fd5b8063462d3a491161012f5780635531981711610114578063553198171461025b578063557b4a091461027b57806379ba50971461029b57600080fd5b8063462d3a491461023257806353a47bb71461023b57600080fd5b806319421ca61161016057806319421ca6146101db5780631baf1682146101f25780632ff7455f1461021257600080fd5b80630a25ef4b1461017c5780631627540c146101c6575b600080fd5b60035461019c9073ffffffffffffffffffffffffffffffffffffffff1681565b60405173ffffffffffffffffffffffffffffffffffffffff90911681526020015b60405180910390f35b6101d96101d4366004612924565b6103c5565b005b6101e4600a5481565b6040519081526020016101bd565b60075461019c9073ffffffffffffffffffffffffffffffffffffffff1681565b610225610220366004612941565b6104ea565b6040516101bd919061295a565b6101e4600c5481565b60015461019c9073ffffffffffffffffffffffffffffffffffffffff1681565b60055461019c9073ffffffffffffffffffffffffffffffffffffffff1681565b61028e610289366004612924565b610773565b6040516101bd9190612a90565b6101d9610c8f565b60095461019c9073ffffffffffffffffffffffffffffffffffffffff1681565b60005461019c9073ffffffffffffffffffffffffffffffffffffffff1681565b6101e4600b5481565b6102ff6102fa366004612941565b610dda565b6040516101bd9190612ba2565b60085461019c9073ffffffffffffffffffffffffffffffffffffffff1681565b6101d961033a366004612924565b611343565b60045461019c9073ffffffffffffffffffffffffffffffffffffffff1681565b61037261036d366004612924565b611453565b6040516101bd9190612c2e565b6101d961038d366004612924565b6118a2565b6103726103a0366004612924565b6119b2565b60065461019c9073ffffffffffffffffffffffffffffffffffffffff1681565b60005473ffffffffffffffffffffffffffffffffffffffff163314610471576040517f08c379a000000000000000000000000000000000000000000000000000000000815260206004820152602f60248201527f4f6e6c792074686520636f6e7472616374206f776e6572206d6179207065726660448201527f6f726d207468697320616374696f6e000000000000000000000000000000000060648201526084015b60405180910390fd5b600180547fffffffffffffffffffffffff00000000000000000000000000000000000000001673ffffffffffffffffffffffffffffffffffffffff83169081179091556040519081527f906a1c6bd7e3091ea86693dd029a831c19049ce77f1dce2ce0bab1cacbabce229060200160405180910390a150565b6040805161012081018252600080825260208201819052818301819052606082018190526080820181905260a0820181905260c0820181905260e08201819052610100820181905260085492517f99fbab8800000000000000000000000000000000000000000000000000000000815260048101859052919290918291829182918291829173ffffffffffffffffffffffffffffffffffffffff16906399fbab889060240161018060405180830381865afa1580156105ad573d6000803e3d6000fd5b505050506040513d601f19601f820116820180604052508101906105d19190612d2a565b50505050975097509750975097509750505060008673ffffffffffffffffffffffffffffffffffffffff1663313ce5676040518163ffffffff1660e01b8152600401602060405180830381865afa158015610630573d6000803e3d6000fd5b505050506040513d601f19601f820116820180604052508101906106549190612e1c565b60ff16905060008673ffffffffffffffffffffffffffffffffffffffff1663313ce5676040518163ffffffff1660e01b8152600401602060405180830381865afa1580156106a6573d6000803e3d6000fd5b505050506040513d601f19601f820116820180604052508101906106ca9190612e1c565b60ff1690506040518061012001604052808973ffffffffffffffffffffffffffffffffffffffff1681526020018873ffffffffffffffffffffffffffffffffffffffff1681526020018762ffffff1681526020018660020b81526020018560020b8152602001846fffffffffffffffffffffffffffffffff1681526020018381526020018281526020018284106107615782610763565b835b90529a9950505050505050505050565b61080b604051806101400160405280600073ffffffffffffffffffffffffffffffffffffffff1681526020016060815260200160608152602001600073ffffffffffffffffffffffffffffffffffffffff168152602001600073ffffffffffffffffffffffffffffffffffffffff16815260200160008152602001600081526020016000815260200160008152602001600081525090565b60008290506000808273ffffffffffffffffffffffffffffffffffffffff16630902f1ac6040518163ffffffff1660e01b8152600401606060405180830381865afa15801561085e573d6000803e3d6000fd5b505050506040513d601f19601f820116820180604052508101906108829190612e55565b506dffffffffffffffffffffffffffff1691506dffffffffffffffffffffffffffff16915060008373ffffffffffffffffffffffffffffffffffffffff16630dfe16816040518163ffffffff1660e01b8152600401602060405180830381865afa1580156108f4573d6000803e3d6000fd5b505050506040513d601f19601f820116820180604052508101906109189190612ea5565b905060008473ffffffffffffffffffffffffffffffffffffffff1663d21220a76040518163ffffffff1660e01b8152600401602060405180830381865afa158015610967573d6000803e3d6000fd5b505050506040513d601f19601f8201168201806040525081019061098b9190612ea5565b90506040518061014001604052808873ffffffffffffffffffffffffffffffffffffffff1681526020018673ffffffffffffffffffffffffffffffffffffffff166306fdde036040518163ffffffff1660e01b8152600401600060405180830381865afa158015610a00573d6000803e3d6000fd5b505050506040513d6000823e601f3d9081017fffffffffffffffffffffffffffffffffffffffffffffffffffffffffffffffe0168201604052610a469190810190612ef1565b81526020018673ffffffffffffffffffffffffffffffffffffffff166395d89b416040518163ffffffff1660e01b8152600401600060405180830381865afa158015610a96573d6000803e3d6000fd5b505050506040513d6000823e601f3d9081017fffffffffffffffffffffffffffffffffffffffffffffffffffffffffffffffe0168201604052610adc9190810190612ef1565b81526020018373ffffffffffffffffffffffffffffffffffffffff1681526020018273ffffffffffffffffffffffffffffffffffffffff1681526020018373ffffffffffffffffffffffffffffffffffffffff1663313ce5676040518163ffffffff1660e01b8152600401602060405180830381865afa158015610b64573d6000803e3d6000fd5b505050506040513d601f19601f82011682018060405250810190610b889190612e1c565b60ff1681526020018273ffffffffffffffffffffffffffffffffffffffff1663313ce5676040518163ffffffff1660e01b8152600401602060405180830381865afa158015610bdb573d6000803e3d6000fd5b505050506040513d601f19601f82011682018060405250810190610bff9190612e1c565b60ff1681526020018581526020018481526020018673ffffffffffffffffffffffffffffffffffffffff166318160ddd6040518163ffffffff1660e01b8152600401602060405180830381865afa158015610c5e573d6000803e3d6000fd5b505050506040513d601f19601f82011682018060405250810190610c829190612fbc565b9052979650505050505050565b60015473ffffffffffffffffffffffffffffffffffffffff163314610d36576040517f08c379a000000000000000000000000000000000000000000000000000000000815260206004820152603560248201527f596f75206d757374206265206e6f6d696e61746564206265666f726520796f7560448201527f2063616e20616363657074206f776e65727368697000000000000000000000006064820152608401610468565b6000546001546040805173ffffffffffffffffffffffffffffffffffffffff93841681529290911660208301527fb532073b38c83145e3e5135377a08bf9aab55bc0fd7c1179cd4fb995d2a5159c910160405180910390a160018054600080547fffffffffffffffffffffffff000000000000000000000000000000000000000090811673ffffffffffffffffffffffffffffffffffffffff841617909155169055565b610e136040518060c001604052806000815260200160008152602001600081526020016060815260200160608152602001600081525090565b6000610e1e836104ea565b6007548151602083015160408085015190517f1698ee8200000000000000000000000000000000000000000000000000000000815273ffffffffffffffffffffffffffffffffffffffff9384166004820152918316602483015262ffffff16604482015292935060009283929190911690631698ee8290606401602060405180830381865afa158015610eb5573d6000803e3d6000fd5b505050506040513d601f19601f82011682018060405250810190610ed99190612ea5565b905060008190508073ffffffffffffffffffffffffffffffffffffffff16633850c7bd6040518163ffffffff1660e01b815260040160e060405180830381865afa158015610f2b573d6000803e3d6000fd5b505050506040513d601f19601f82011682018060405250810190610f4f9190612ff7565b505050506060870151929550600094508493508392610f7092509050611e01565b90506000610f818660800151611e01565b90506000866101000151600a610f9791906131ce565b9050600080610fc9888686868d60a001516fffffffffffffffffffffffffffffffff16610fc49190613209565b61229b565b9150915060008960c001516012610fe0919061321d565b610feb90600a6131ce565b905060008a60e001516012611000919061321d565b61100b90600a6131ce565b6005548c516040517fd02641a000000000000000000000000000000000000000000000000000000000815273ffffffffffffffffffffffffffffffffffffffff918216600482015292935060009291169063d02641a090602401606060405180830381865afa158015611082573d6000803e3d6000fd5b505050506040513d601f19601f820116820180604052508101906110a69190613234565b505060055460208e01516040517fd02641a000000000000000000000000000000000000000000000000000000000815273ffffffffffffffffffffffffffffffffffffffff918216600482015292935060009291169063d02641a090602401606060405180830381865afa158015611122573d6000803e3d6000fd5b505050506040513d601f19601f820116820180604052508101906111469190613234565b5050600a54909150848361115a8a8a613262565b6111649190613262565b61116e9190613262565b6111789190613209565b600a54909b50838261118a8a89613262565b6111949190613262565b61119e9190613262565b6111a89190613209565b9950505050505050505050600081836111c1919061329f565b90506040518060c00160405280848152602001838152602001828152602001866000015173ffffffffffffffffffffffffffffffffffffffff166395d89b416040518163ffffffff1660e01b8152600401600060405180830381865afa15801561122f573d6000803e3d6000fd5b505050506040513d6000823e601f3d9081017fffffffffffffffffffffffffffffffffffffffffffffffffffffffffffffffe01682016040526112759190810190612ef1565b8152602001866020015173ffffffffffffffffffffffffffffffffffffffff166395d89b416040518163ffffffff1660e01b8152600401600060405180830381865afa1580156112c9573d6000803e3d6000fd5b505050506040513d6000823e601f3d9081017fffffffffffffffffffffffffffffffffffffffffffffffffffffffffffffffe016820160405261130f9190810190612ef1565b815260200182600a548860a001516fffffffffffffffffffffffffffffffff166113399190613262565b610c829190613209565b60005473ffffffffffffffffffffffffffffffffffffffff16331480611380575060025473ffffffffffffffffffffffffffffffffffffffff1633145b61140c576040517f08c379a000000000000000000000000000000000000000000000000000000000815260206004820152602f60248201527f596f7520617265206e6f7420616e206f776e6572206f722074686520676f766560448201527f726e616e63652074696d656c6f636b00000000000000000000000000000000006064820152608401610468565b600280547fffffffffffffffffffffffff00000000000000000000000000000000000000001673ffffffffffffffffffffffffffffffffffffffff92909216919091179055565b61148c6040518060c001604052806000815260200160008152602001606081526020016060815260200160608152602001606081525090565b600061149783610773565b90506000600560009054906101000a900473ffffffffffffffffffffffffffffffffffffffff1673ffffffffffffffffffffffffffffffffffffffff16633179fabc6040518163ffffffff1660e01b8152600401602060405180830381865afa158015611508573d6000803e3d6000fd5b505050506040513d601f19601f8201168201806040525081019061152c9190612fbc565b905060008061155d8461012001516115578661010001518760e001516115529190613262565b612385565b90612510565b60055460608601516040517f8020d2ce00000000000000000000000000000000000000000000000000000000815273ffffffffffffffffffffffffffffffffffffffff9182166004820152929350600092911690638020d2ce90602401602060405180830381865afa1580156115d7573d6000803e3d6000fd5b505050506040513d601f19601f820116820180604052508101906115fb9190612fbc565b60055460808701516040517f8020d2ce00000000000000000000000000000000000000000000000000000000815273ffffffffffffffffffffffffffffffffffffffff9182166004820152929350600092911690638020d2ce90602401602060405180830381865afa158015611675573d6000803e3d6000fd5b505050506040513d601f19601f820116820180604052508101906116999190612fbc565b905060006701000000000000006116af83612385565b6701000000000000006116c186612385565b6116cc886002613262565b6116d69190613262565b6116e09190613209565b6116ea9190613262565b6116f49190613209565b9050600061170a67010000000000000083613209565b905067010000000000000061171f8883613262565b6117299190613209565b955050505050506040518060c00160405280828152602001600c548361174f9190613209565b81526020018460400151815260200184602001518152602001846060015173ffffffffffffffffffffffffffffffffffffffff166395d89b416040518163ffffffff1660e01b8152600401600060405180830381865afa1580156117b7573d6000803e3d6000fd5b505050506040513d6000823e601f3d9081017fffffffffffffffffffffffffffffffffffffffffffffffffffffffffffffffe01682016040526117fd9190810190612ef1565b8152602001846080015173ffffffffffffffffffffffffffffffffffffffff166395d89b416040518163ffffffff1660e01b8152600401600060405180830381865afa158015611851573d6000803e3d6000fd5b505050506040513d6000823e601f3d9081017fffffffffffffffffffffffffffffffffffffffffffffffffffffffffffffffe01682016040526118979190810190612ef1565b905295945050505050565b60005473ffffffffffffffffffffffffffffffffffffffff163314806118df575060025473ffffffffffffffffffffffffffffffffffffffff1633145b61196b576040517f08c379a000000000000000000000000000000000000000000000000000000000815260206004820152602f60248201527f596f7520617265206e6f7420616e206f776e6572206f722074686520676f766560448201527f726e616e63652074696d656c6f636b00000000000000000000000000000000006064820152608401610468565b600580547fffffffffffffffffffffffff00000000000000000000000000000000000000001673ffffffffffffffffffffffffffffffffffffffff92909216919091179055565b6119eb6040518060c001604052806000815260200160008152602001606081526020016060815260200160608152602001606081525090565b60006119f683610773565b60055460608201516040517f4db769ad00000000000000000000000000000000000000000000000000000000815273ffffffffffffffffffffffffffffffffffffffff9182166004820152929350600092911690634db769ad90602401602060405180830381865afa158015611a70573d6000803e3d6000fd5b505050506040513d601f19601f82011682018060405250810190611a9491906132b7565b15611b965760055460608301516040517fd02641a000000000000000000000000000000000000000000000000000000000815273ffffffffffffffffffffffffffffffffffffffff9182166004820152600092919091169063d02641a090602401606060405180830381865afa158015611b12573d6000803e3d6000fd5b505050506040513d601f19601f82011682018060405250810190611b369190613234565b505090508261012001518360e00151826002611b529190613262565b611b5c9190613262565b611b669190613209565b91508260a001516012611b79919061321d565b611b8490600a6131ce565b611b8e9083613262565b915050611c90565b60055460808301516040517fd02641a000000000000000000000000000000000000000000000000000000000815273ffffffffffffffffffffffffffffffffffffffff9182166004820152600092919091169063d02641a090602401606060405180830381865afa158015611c0f573d6000803e3d6000fd5b505050506040513d601f19601f82011682018060405250810190611c339190613234565b50509050826101200151836101000151826002611c509190613262565b611c5a9190613262565b611c649190613209565b91508260c001516012611c77919061321d565b611c8290600a6131ce565b611c8c9083613262565b9150505b6040518060c00160405280828152602001600c5483611caf9190613209565b81526020018360400151815260200183602001518152602001836060015173ffffffffffffffffffffffffffffffffffffffff166395d89b416040518163ffffffff1660e01b8152600401600060405180830381865afa158015611d17573d6000803e3d6000fd5b505050506040513d6000823e601f3d9081017fffffffffffffffffffffffffffffffffffffffffffffffffffffffffffffffe0168201604052611d5d9190810190612ef1565b8152602001836080015173ffffffffffffffffffffffffffffffffffffffff166395d89b416040518163ffffffff1660e01b8152600401600060405180830381865afa158015611db1573d6000803e3d6000fd5b505050506040513d6000823e601f3d9081017fffffffffffffffffffffffffffffffffffffffffffffffffffffffffffffffe0168201604052611df79190810190612ef1565b9052949350505050565b60008060008360020b12611e18578260020b611e25565b8260020b611e25906132d2565b9050611e507ffffffffffffffffffffffffffffffffffffffffffffffffffffffffffff2761861330b565b60020b811315611ebc576040517f08c379a000000000000000000000000000000000000000000000000000000000815260206004820152600160248201527f54000000000000000000000000000000000000000000000000000000000000006044820152606401610468565b600060018216611edd57700100000000000000000000000000000000611eef565b6ffffcb933bd6fad37aa2d162d1a5940015b70ffffffffffffffffffffffffffffffffff1690506002821615611f2e576080611f29826ffff97272373d413259a46990580e213a613262565b901c90505b6004821615611f58576080611f53826ffff2e50f5f656932ef12357cf3c7fdcc613262565b901c90505b6008821615611f82576080611f7d826fffe5caca7e10e4e61c3624eaa0941cd0613262565b901c90505b6010821615611fac576080611fa7826fffcb9843d60f6159c9db58835c926644613262565b901c90505b6020821615611fd6576080611fd1826fff973b41fa98c081472e6896dfb254c0613262565b901c90505b6040821615612000576080611ffb826fff2ea16466c96a3843ec78b326b52861613262565b901c90505b608082161561202a576080612025826ffe5dee046a99a2a811c461f1969c3053613262565b901c90505b610100821615612055576080612050826ffcbe86c7900a88aedcffc83b479aa3a4613262565b901c90505b61020082161561208057608061207b826ff987a7253ac413176f2b074cf7815e54613262565b901c90505b6104008216156120ab5760806120a6826ff3392b0822b70005940c7a398e4b70f3613262565b901c90505b6108008216156120d65760806120d1826fe7159475a2c29b7443b29c7fa6e889d9613262565b901c90505b6110008216156121015760806120fc826fd097f3bdfd2022b8845ad8f792aa5825613262565b901c90505b61200082161561212c576080612127826fa9f746462d870fdf8a65dc1f90e061e5613262565b901c90505b614000821615612157576080612152826f70d869a156d2a1b890bb3df62baf32f7613262565b901c90505b61800082161561218257608061217d826f31be135f97d08fd981231505542fcfa6613262565b901c90505b620100008216156121ae5760806121a9826f09aa508b5b7a84e1c677de54f3e99bc9613262565b901c90505b620200008216156121d95760806121d4826e5d6af8dedb81196699c329225ee604613262565b901c90505b620400008216156122035760806121fe826d2216e584f5fa1ea926041bedfe98613262565b901c90505b6208000082161561222b576080612226826b048a170391f7dc42444e8fa2613262565b901c90505b60008460020b131561226457612261817fffffffffffffffffffffffffffffffffffffffffffffffffffffffffffffffff613209565b90505b6122736401000000008261334a565b1561227f576001612282565b60005b6122939060ff16602083901c61329f565b949350505050565b6000808373ffffffffffffffffffffffffffffffffffffffff168573ffffffffffffffffffffffffffffffffffffffff1611156122d6579293925b8473ffffffffffffffffffffffffffffffffffffffff168673ffffffffffffffffffffffffffffffffffffffff161161231b5761231485858561253f565b915061237c565b8373ffffffffffffffffffffffffffffffffffffffff168673ffffffffffffffffffffffffffffffffffffffff16101561236e5761235a86858561253f565b9150612367858785612606565b905061237c565b612379858585612606565b90505b94509492505050565b60008161239457506000919050565b81600170010000000000000000000000000000000082106123ba5760809190911c9060401b5b6801000000000000000082106123d55760409190911c9060201b5b64010000000082106123ec5760209190911c9060101b5b6201000082106124015760109190911c9060081b5b61010082106124155760089190911c9060041b5b601082106124285760049190911c9060021b5b600882106124345760011b5b60016124408286613209565b61244a908361329f565b901c9050600161245a8286613209565b612464908361329f565b901c905060016124748286613209565b61247e908361329f565b901c9050600161248e8286613209565b612498908361329f565b901c905060016124a88286613209565b6124b2908361329f565b901c905060016124c28286613209565b6124cc908361329f565b901c905060016124dc8286613209565b6124e6908361329f565b901c905060006124f68286613209565b90508082106125055780612507565b815b95945050505050565b60008161252c846e010000000000000000000000000000612689565b6125369190613209565b90505b92915050565b60008273ffffffffffffffffffffffffffffffffffffffff168473ffffffffffffffffffffffffffffffffffffffff161115612579579192915b73ffffffffffffffffffffffffffffffffffffffff84166125f27bffffffffffffffffffffffffffffffff000000000000000000000000606085901b166125c0878761335e565b73ffffffffffffffffffffffffffffffffffffffff168673ffffffffffffffffffffffffffffffffffffffff1661273e565b6125fc9190613209565b90505b9392505050565b60008273ffffffffffffffffffffffffffffffffffffffff168473ffffffffffffffffffffffffffffffffffffffff161115612640579192915b6125fc6fffffffffffffffffffffffffffffffff8316612660868661335e565b73ffffffffffffffffffffffffffffffffffffffff166c0100000000000000000000000061273e565b60008261269857506000612539565b60006126a48385613262565b9050826126b18583613209565b14612536576040517f08c379a000000000000000000000000000000000000000000000000000000000815260206004820152602160248201527f536166654d6174683a206d756c7469706c69636174696f6e206f766572666c6f60448201527f77000000000000000000000000000000000000000000000000000000000000006064820152608401610468565b600080807fffffffffffffffffffffffffffffffffffffffffffffffffffffffffffffffff8587098587029250828110838203039150508060001415612796576000841161278b57600080fd5b5082900490506125ff565b8084116127a257600080fd5b6000848688098084039381119092039190506000856127e1817fffffffffffffffffffffffffffffffffffffffffffffffffffffffffffffffff61321d565b6127ec90600161329f565b1695869004959384900493600081900304600101905061280c8184613262565b90931792600061281d876003613262565b600218905061282c8188613262565b61283790600261321d565b6128419082613262565b905061284d8188613262565b61285890600261321d565b6128629082613262565b905061286e8188613262565b61287990600261321d565b6128839082613262565b905061288f8188613262565b61289a90600261321d565b6128a49082613262565b90506128b08188613262565b6128bb90600261321d565b6128c59082613262565b90506128d18188613262565b6128dc90600261321d565b6128e69082613262565b90506128f28186613262565b9998505050505050505050565b73ffffffffffffffffffffffffffffffffffffffff8116811461292157600080fd5b50565b60006020828403121561293657600080fd5b8135612536816128ff565b60006020828403121561295357600080fd5b5035919050565b60006101208201905073ffffffffffffffffffffffffffffffffffffffff8084511683528060208501511660208401525060408301516129a1604084018262ffffff169052565b5060608301516129b6606084018260020b9052565b5060808301516129cb608084018260020b9052565b5060a08301516129ef60a08401826fffffffffffffffffffffffffffffffff169052565b5060c083015160c083015260e083015160e083015261010080840151818401525092915050565b60005b83811015612a31578181015183820152602001612a19565b83811115612a40576000848401525b50505050565b60008151808452612a5e816020860160208601612a16565b601f017fffffffffffffffffffffffffffffffffffffffffffffffffffffffffffffffe0169290920160200192915050565b60208152612ab760208201835173ffffffffffffffffffffffffffffffffffffffff169052565b60006020830151610140806040850152612ad5610160850183612a46565b915060408501517fffffffffffffffffffffffffffffffffffffffffffffffffffffffffffffffe0858403016060860152612b108382612a46565b9250506060850151612b3a608086018273ffffffffffffffffffffffffffffffffffffffff169052565b50608085015173ffffffffffffffffffffffffffffffffffffffff811660a08601525060a085015160c085015260c085015160e085015260e0850151610100818187015280870151915050610120818187015280870151838701525050508091505092915050565b602081528151602082015260208201516040820152604082015160608201526000606083015160c06080840152612bdc60e0840182612a46565b905060808401517fffffffffffffffffffffffffffffffffffffffffffffffffffffffffffffffe08483030160a0850152612c178282612a46565b91505060a084015160c08401528091505092915050565b6020815281516020820152602082015160408201526000604083015160c06060840152612c5e60e0840182612a46565b905060608401517fffffffffffffffffffffffffffffffffffffffffffffffffffffffffffffffe080858403016080860152612c9a8383612a46565b925060808601519150808584030160a0860152612cb78383612a46565b925060a08601519150808584030160c0860152506125078282612a46565b8051612ce0816128ff565b919050565b805162ffffff81168114612ce057600080fd5b8051600281900b8114612ce057600080fd5b80516fffffffffffffffffffffffffffffffff81168114612ce057600080fd5b6000806000806000806000806000806000806101808d8f031215612d4d57600080fd5b8c516bffffffffffffffffffffffff81168114612d6957600080fd5b9b50612d7760208e01612cd5565b9a50612d8560408e01612cd5565b9950612d9360608e01612cd5565b9850612da160808e01612ce5565b9750612daf60a08e01612cf8565b9650612dbd60c08e01612cf8565b9550612dcb60e08e01612d0a565b94506101008d015193506101208d01519250612dea6101408e01612d0a565b9150612df96101608e01612d0a565b90509295989b509295989b509295989b565b805160ff81168114612ce057600080fd5b600060208284031215612e2e57600080fd5b61253682612e0b565b80516dffffffffffffffffffffffffffff81168114612ce057600080fd5b600080600060608486031215612e6a57600080fd5b612e7384612e37565b9250612e8160208501612e37565b9150604084015163ffffffff81168114612e9a57600080fd5b809150509250925092565b600060208284031215612eb757600080fd5b8151612536816128ff565b7f4e487b7100000000000000000000000000000000000000000000000000000000600052604160045260246000fd5b600060208284031215612f0357600080fd5b815167ffffffffffffffff80821115612f1b57600080fd5b818401915084601f830112612f2f57600080fd5b815181811115612f4157612f41612ec2565b604051601f82017fffffffffffffffffffffffffffffffffffffffffffffffffffffffffffffffe0908116603f01168101908382118183101715612f8757612f87612ec2565b81604052828152876020848701011115612fa057600080fd5b612fb1836020830160208801612a16565b979650505050505050565b600060208284031215612fce57600080fd5b5051919050565b805161ffff81168114612ce057600080fd5b80518015158114612ce057600080fd5b600080600080600080600060e0888a03121561301257600080fd5b875161301d816128ff565b965061302b60208901612cf8565b955061303960408901612fd5565b945061304760608901612fd5565b935061305560808901612fd5565b925061306360a08901612e0b565b915061307160c08901612fe7565b905092959891949750929550565b7f4e487b7100000000000000000000000000000000000000000000000000000000600052601160045260246000fd5b600181815b8085111561310757817fffffffffffffffffffffffffffffffffffffffffffffffffffffffffffffffff048211156130ed576130ed61307f565b808516156130fa57918102915b93841c93908002906130b3565b509250929050565b60008261311e57506001612539565b8161312b57506000612539565b8160018114613141576002811461314b57613167565b6001915050612539565b60ff84111561315c5761315c61307f565b50506001821b612539565b5060208310610133831016604e8410600b841016171561318a575081810a612539565b61319483836130ae565b807fffffffffffffffffffffffffffffffffffffffffffffffffffffffffffffffff048211156131c6576131c661307f565b029392505050565b6000612536838361310f565b7f4e487b7100000000000000000000000000000000000000000000000000000000600052601260045260246000fd5b600082613218576132186131da565b500490565b60008282101561322f5761322f61307f565b500390565b60008060006060848603121561324957600080fd5b8351925060208401519150604084015190509250925092565b6000817fffffffffffffffffffffffffffffffffffffffffffffffffffffffffffffffff048311821515161561329a5761329a61307f565b500290565b600082198211156132b2576132b261307f565b500190565b6000602082840312156132c957600080fd5b61253682612fe7565b60007f80000000000000000000000000000000000000000000000000000000000000008214156133045761330461307f565b5060000390565b60008160020b7fffffffffffffffffffffffffffffffffffffffffffffffffffffffffff8000008114156133415761334161307f565b60000392915050565b600082613359576133596131da565b500690565b600073ffffffffffffffffffffffffffffffffffffffff8381169083168181101561338b5761338b61307f565b03939250505056fea264697066735822122037bd5095e7ce3d63e7ee4cac1e7c251df34f2d75596b02ade16778d55abcffec64736f6c634300080a0033",
  "libraries": {},
  "devdoc": {
    "kind": "dev",
    "methods": {},
    "version": 1
  },
  "userdoc": {
    "kind": "user",
    "methods": {},
    "version": 1
  },
  "storageLayout": {
    "storage": [
      {
        "astId": 1224,
        "contract": "contracts/flattened.sol:ComboOracle_UniV2_UniV3",
        "label": "owner",
        "offset": 0,
        "slot": "0",
        "type": "t_address"
      },
      {
        "astId": 1226,
        "contract": "contracts/flattened.sol:ComboOracle_UniV2_UniV3",
        "label": "nominatedOwner",
        "offset": 0,
        "slot": "1",
        "type": "t_address"
      },
      {
        "astId": 5358,
        "contract": "contracts/flattened.sol:ComboOracle_UniV2_UniV3",
        "label": "timelock_address",
        "offset": 0,
        "slot": "2",
        "type": "t_address"
      },
      {
        "astId": 5360,
        "contract": "contracts/flattened.sol:ComboOracle_UniV2_UniV3",
        "label": "frax_address",
        "offset": 0,
        "slot": "3",
        "type": "t_address"
      },
      {
        "astId": 5362,
        "contract": "contracts/flattened.sol:ComboOracle_UniV2_UniV3",
        "label": "fxs_address",
        "offset": 0,
        "slot": "4",
        "type": "t_address"
      },
      {
        "astId": 5365,
        "contract": "contracts/flattened.sol:ComboOracle_UniV2_UniV3",
        "label": "combo_oracle",
        "offset": 0,
        "slot": "5",
        "type": "t_contract(ComboOracle)2501"
      },
      {
        "astId": 5368,
        "contract": "contracts/flattened.sol:ComboOracle_UniV2_UniV3",
        "label": "router",
        "offset": 0,
        "slot": "6",
        "type": "t_contract(IUniswapV2Router02)3132"
      },
      {
        "astId": 5371,
        "contract": "contracts/flattened.sol:ComboOracle_UniV2_UniV3",
        "label": "univ3_factory",
        "offset": 0,
        "slot": "7",
        "type": "t_contract(IUniswapV3Factory)3213"
      },
      {
        "astId": 5374,
        "contract": "contracts/flattened.sol:ComboOracle_UniV2_UniV3",
        "label": "univ3_positions",
        "offset": 0,
        "slot": "8",
        "type": "t_contract(INonfungiblePositionManager)4818"
      },
      {
        "astId": 5377,
        "contract": "contracts/flattened.sol:ComboOracle_UniV2_UniV3",
        "label": "univ3_router",
        "offset": 0,
        "slot": "9",
        "type": "t_contract(ISwapRouter)5348"
      },
      {
        "astId": 5380,
        "contract": "contracts/flattened.sol:ComboOracle_UniV2_UniV3",
        "label": "PRECISE_PRICE_PRECISION",
        "offset": 0,
        "slot": "10",
        "type": "t_uint256"
      },
      {
        "astId": 5383,
        "contract": "contracts/flattened.sol:ComboOracle_UniV2_UniV3",
        "label": "PRICE_PRECISION",
        "offset": 0,
        "slot": "11",
        "type": "t_uint256"
      },
      {
        "astId": 5386,
        "contract": "contracts/flattened.sol:ComboOracle_UniV2_UniV3",
        "label": "PRICE_MISSING_MULTIPLIER",
        "offset": 0,
        "slot": "12",
        "type": "t_uint256"
      }
    ],
    "types": {
      "t_address": {
        "encoding": "inplace",
        "label": "address",
        "numberOfBytes": "20"
      },
      "t_contract(ComboOracle)2501": {
        "encoding": "inplace",
        "label": "contract ComboOracle",
        "numberOfBytes": "20"
      },
      "t_contract(INonfungiblePositionManager)4818": {
        "encoding": "inplace",
        "label": "contract INonfungiblePositionManager",
        "numberOfBytes": "20"
      },
      "t_contract(ISwapRouter)5348": {
        "encoding": "inplace",
        "label": "contract ISwapRouter",
        "numberOfBytes": "20"
      },
      "t_contract(IUniswapV2Router02)3132": {
        "encoding": "inplace",
        "label": "contract IUniswapV2Router02",
        "numberOfBytes": "20"
      },
      "t_contract(IUniswapV3Factory)3213": {
        "encoding": "inplace",
        "label": "contract IUniswapV3Factory",
        "numberOfBytes": "20"
      },
      "t_uint256": {
        "encoding": "inplace",
        "label": "uint256",
        "numberOfBytes": "32"
      }
    }
  }
}