{
  "address": "0xFbD5ED7244842696a60424e347109F8E42be46E0",
  "abi": [
    {
      "inputs": [
        {
          "internalType": "address",
          "name": "_owner",
          "type": "address"
        },
        {
          "internalType": "address",
          "name": "_timelock_address",
          "type": "address"
        },
        {
          "internalType": "address",
          "name": "_cross_chain_oracle_address",
          "type": "address"
        },
        {
          "internalType": "address[5]",
          "name": "_token_addresses",
          "type": "address[5]"
        },
        {
          "internalType": "address[3]",
          "name": "_bridge_addresses",
          "type": "address[3]"
        },
        {
          "internalType": "address",
          "name": "_destination_address_override",
          "type": "address"
        },
        {
          "internalType": "string",
          "name": "_non_evm_destination_address",
          "type": "string"
        },
        {
          "internalType": "string",
          "name": "_name",
          "type": "string"
        }
      ],
      "stateMutability": "nonpayable",
      "type": "constructor"
    },
    {
      "anonymous": false,
      "inputs": [
        {
          "indexed": false,
          "internalType": "address",
          "name": "amo_address",
          "type": "address"
        }
      ],
      "name": "AMOAdded",
      "type": "event"
    },
    {
      "anonymous": false,
      "inputs": [
        {
          "indexed": false,
          "internalType": "address",
          "name": "amo_address",
          "type": "address"
        }
      ],
      "name": "AMORemoved",
      "type": "event"
    },
    {
      "anonymous": false,
      "inputs": [
        {
          "indexed": false,
          "internalType": "address",
          "name": "frax_bridge_address",
          "type": "address"
        },
        {
          "indexed": false,
          "internalType": "address",
          "name": "fxs_bridge_address",
          "type": "address"
        },
        {
          "indexed": false,
          "internalType": "address",
          "name": "collateral_bridge_address",
          "type": "address"
        },
        {
          "indexed": false,
          "internalType": "address",
          "name": "destination_address_override",
          "type": "address"
        },
        {
          "indexed": false,
          "internalType": "string",
          "name": "non_evm_destination_address",
          "type": "string"
        }
      ],
      "name": "BridgeInfoChanged",
      "type": "event"
    },
    {
      "anonymous": false,
      "inputs": [
        {
          "indexed": false,
          "internalType": "address",
          "name": "oldOwner",
          "type": "address"
        },
        {
          "indexed": false,
          "internalType": "address",
          "name": "newOwner",
          "type": "address"
        }
      ],
      "name": "OwnerChanged",
      "type": "event"
    },
    {
      "anonymous": false,
      "inputs": [
        {
          "indexed": false,
          "internalType": "address",
          "name": "newOwner",
          "type": "address"
        }
      ],
      "name": "OwnerNominated",
      "type": "event"
    },
    {
      "anonymous": false,
      "inputs": [
        {
          "indexed": false,
          "internalType": "address",
          "name": "token",
          "type": "address"
        },
        {
          "indexed": false,
          "internalType": "uint256",
          "name": "amount",
          "type": "uint256"
        }
      ],
      "name": "RecoveredERC20",
      "type": "event"
    },
    {
      "inputs": [],
      "name": "acceptOwnership",
      "outputs": [],
      "stateMutability": "nonpayable",
      "type": "function"
    },
    {
      "inputs": [
        {
          "internalType": "address",
          "name": "amo_address",
          "type": "address"
        },
        {
          "internalType": "bool",
          "name": "is_eoa",
          "type": "bool"
        }
      ],
      "name": "addAMO",
      "outputs": [],
      "stateMutability": "nonpayable",
      "type": "function"
    },
    {
      "inputs": [],
      "name": "allAMOAddresses",
      "outputs": [
        {
          "internalType": "address[]",
          "name": "",
          "type": "address[]"
        }
      ],
      "stateMutability": "view",
      "type": "function"
    },
    {
      "inputs": [],
      "name": "allAMOsLength",
      "outputs": [
        {
          "internalType": "uint256",
          "name": "",
          "type": "uint256"
        }
      ],
      "stateMutability": "view",
      "type": "function"
    },
    {
      "inputs": [],
      "name": "allBalances",
      "outputs": [
        {
          "internalType": "uint256",
          "name": "frax_ttl",
          "type": "uint256"
        },
        {
          "internalType": "uint256",
          "name": "fxs_ttl",
          "type": "uint256"
        },
        {
          "internalType": "uint256",
          "name": "col_ttl",
          "type": "uint256"
        },
        {
          "internalType": "uint256",
          "name": "ttl_val_usd_e18",
          "type": "uint256"
        }
      ],
      "stateMutability": "view",
      "type": "function"
    },
    {
      "inputs": [
        {
          "internalType": "address",
          "name": "",
          "type": "address"
        }
      ],
      "name": "amos",
      "outputs": [
        {
          "internalType": "bool",
          "name": "",
          "type": "bool"
        }
      ],
      "stateMutability": "view",
      "type": "function"
    },
    {
      "inputs": [
        {
          "internalType": "uint256",
          "name": "",
          "type": "uint256"
        }
      ],
      "name": "amos_array",
      "outputs": [
        {
          "internalType": "address",
          "name": "",
          "type": "address"
        }
      ],
      "stateMutability": "view",
      "type": "function"
    },
    {
      "inputs": [],
      "name": "anyFRAX",
      "outputs": [
        {
          "internalType": "contract IAnyswapV4ERC20",
          "name": "",
          "type": "address"
        }
      ],
      "stateMutability": "view",
      "type": "function"
    },
    {
      "inputs": [],
      "name": "anyFXS",
      "outputs": [
        {
          "internalType": "contract IAnyswapV4ERC20",
          "name": "",
          "type": "address"
        }
      ],
      "stateMutability": "view",
      "type": "function"
    },
    {
      "inputs": [
        {
          "internalType": "uint256",
          "name": "",
          "type": "uint256"
        }
      ],
      "name": "bridge_addresses",
      "outputs": [
        {
          "internalType": "address",
          "name": "",
          "type": "address"
        }
      ],
      "stateMutability": "view",
      "type": "function"
    },
    {
      "inputs": [
        {
          "internalType": "uint256",
          "name": "frax_amount",
          "type": "uint256"
        }
      ],
      "name": "burnCanonicalFrax",
      "outputs": [],
      "stateMutability": "nonpayable",
      "type": "function"
    },
    {
      "inputs": [
        {
          "internalType": "uint256",
          "name": "fxs_amount",
          "type": "uint256"
        }
      ],
      "name": "burnCanonicalFxs",
      "outputs": [],
      "stateMutability": "nonpayable",
      "type": "function"
    },
    {
      "inputs": [],
      "name": "canFRAX",
      "outputs": [
        {
          "internalType": "contract CrossChainCanonical",
          "name": "",
          "type": "address"
        }
      ],
      "stateMutability": "view",
      "type": "function"
    },
    {
      "inputs": [],
      "name": "canFXS",
      "outputs": [
        {
          "internalType": "contract CrossChainCanonical",
          "name": "",
          "type": "address"
        }
      ],
      "stateMutability": "view",
      "type": "function"
    },
    {
      "inputs": [],
      "name": "collat_bridged_back_sum",
      "outputs": [
        {
          "internalType": "uint256",
          "name": "",
          "type": "uint256"
        }
      ],
      "stateMutability": "view",
      "type": "function"
    },
    {
      "inputs": [
        {
          "internalType": "address",
          "name": "",
          "type": "address"
        }
      ],
      "name": "collat_lent_balances",
      "outputs": [
        {
          "internalType": "uint256",
          "name": "",
          "type": "uint256"
        }
      ],
      "stateMutability": "view",
      "type": "function"
    },
    {
      "inputs": [],
      "name": "collat_lent_sum",
      "outputs": [
        {
          "internalType": "uint256",
          "name": "",
          "type": "uint256"
        }
      ],
      "stateMutability": "view",
      "type": "function"
    },
    {
      "inputs": [],
      "name": "collateral_token",
      "outputs": [
        {
          "internalType": "contract ERC20",
          "name": "",
          "type": "address"
        }
      ],
      "stateMutability": "view",
      "type": "function"
    },
    {
      "inputs": [
        {
          "internalType": "uint256",
          "name": "token_type",
          "type": "uint256"
        },
        {
          "internalType": "address",
          "name": "bridge_token_address",
          "type": "address"
        },
        {
          "internalType": "uint256",
          "name": "token_amount",
          "type": "uint256"
        }
      ],
      "name": "collectBridgeTokens",
      "outputs": [],
      "stateMutability": "nonpayable",
      "type": "function"
    },
    {
      "inputs": [],
      "name": "cross_chain_oracle",
      "outputs": [
        {
          "internalType": "contract ICrossChainOracle",
          "name": "",
          "type": "address"
        }
      ],
      "stateMutability": "view",
      "type": "function"
    },
    {
      "inputs": [],
      "name": "destination",
      "outputs": [
        {
          "internalType": "uint32",
          "name": "",
          "type": "uint32"
        }
      ],
      "stateMutability": "view",
      "type": "function"
    },
    {
      "inputs": [],
      "name": "destination_address_override",
      "outputs": [
        {
          "internalType": "address",
          "name": "",
          "type": "address"
        }
      ],
      "stateMutability": "view",
      "type": "function"
    },
    {
      "inputs": [
        {
          "internalType": "address",
          "name": "",
          "type": "address"
        }
      ],
      "name": "eoa_amos",
      "outputs": [
        {
          "internalType": "bool",
          "name": "",
          "type": "bool"
        }
      ],
      "stateMutability": "view",
      "type": "function"
    },
    {
      "inputs": [
        {
          "internalType": "address",
          "name": "_to",
          "type": "address"
        },
        {
          "internalType": "uint256",
          "name": "_value",
          "type": "uint256"
        },
        {
          "internalType": "bytes",
          "name": "_data",
          "type": "bytes"
        }
      ],
      "name": "execute",
      "outputs": [
        {
          "internalType": "bool",
          "name": "",
          "type": "bool"
        },
        {
          "internalType": "bytes",
          "name": "",
          "type": "bytes"
        }
      ],
      "stateMutability": "nonpayable",
      "type": "function"
    },
    {
      "inputs": [],
      "name": "frax_bridged_back_sum",
      "outputs": [
        {
          "internalType": "uint256",
          "name": "",
          "type": "uint256"
        }
      ],
      "stateMutability": "view",
      "type": "function"
    },
    {
      "inputs": [
        {
          "internalType": "address",
          "name": "",
          "type": "address"
        }
      ],
      "name": "frax_lent_balances",
      "outputs": [
        {
          "internalType": "uint256",
          "name": "",
          "type": "uint256"
        }
      ],
      "stateMutability": "view",
      "type": "function"
    },
    {
      "inputs": [],
      "name": "frax_lent_sum",
      "outputs": [
        {
          "internalType": "uint256",
          "name": "",
          "type": "uint256"
        }
      ],
      "stateMutability": "view",
      "type": "function"
    },
    {
      "inputs": [],
      "name": "fxs_bridged_back_sum",
      "outputs": [
        {
          "internalType": "uint256",
          "name": "",
          "type": "uint256"
        }
      ],
      "stateMutability": "view",
      "type": "function"
    },
    {
      "inputs": [
        {
          "internalType": "address",
          "name": "",
          "type": "address"
        }
      ],
      "name": "fxs_lent_balances",
      "outputs": [
        {
          "internalType": "uint256",
          "name": "",
          "type": "uint256"
        }
      ],
      "stateMutability": "view",
      "type": "function"
    },
    {
      "inputs": [],
      "name": "fxs_lent_sum",
      "outputs": [
        {
          "internalType": "uint256",
          "name": "",
          "type": "uint256"
        }
      ],
      "stateMutability": "view",
      "type": "function"
    },
    {
      "inputs": [
        {
          "internalType": "address",
          "name": "token_address",
          "type": "address"
        }
      ],
      "name": "getTokenType",
      "outputs": [
        {
          "internalType": "uint256",
          "name": "",
          "type": "uint256"
        }
      ],
      "stateMutability": "view",
      "type": "function"
    },
    {
      "inputs": [
        {
          "internalType": "uint256",
          "name": "token_type",
          "type": "uint256"
        },
        {
          "internalType": "uint256",
          "name": "token_amount",
          "type": "uint256"
        }
      ],
      "name": "giveAnyToCan",
      "outputs": [],
      "stateMutability": "nonpayable",
      "type": "function"
    },
    {
      "inputs": [
        {
          "internalType": "address",
          "name": "destination_amo",
          "type": "address"
        },
        {
          "internalType": "uint256",
          "name": "collat_amount",
          "type": "uint256"
        }
      ],
      "name": "lendCollatToAMO",
      "outputs": [],
      "stateMutability": "nonpayable",
      "type": "function"
    },
    {
      "inputs": [
        {
          "internalType": "address",
          "name": "destination_amo",
          "type": "address"
        },
        {
          "internalType": "uint256",
          "name": "frax_amount",
          "type": "uint256"
        }
      ],
      "name": "lendFraxToAMO",
      "outputs": [],
      "stateMutability": "nonpayable",
      "type": "function"
    },
    {
      "inputs": [
        {
          "internalType": "address",
          "name": "destination_amo",
          "type": "address"
        },
        {
          "internalType": "uint256",
          "name": "fxs_amount",
          "type": "uint256"
        }
      ],
      "name": "lendFxsToAMO",
      "outputs": [],
      "stateMutability": "nonpayable",
      "type": "function"
    },
    {
      "inputs": [
        {
          "internalType": "uint256",
          "name": "frax_amount",
          "type": "uint256"
        }
      ],
      "name": "mintCanonicalFrax",
      "outputs": [],
      "stateMutability": "nonpayable",
      "type": "function"
    },
    {
      "inputs": [
        {
          "internalType": "uint256",
          "name": "fxs_amount",
          "type": "uint256"
        }
      ],
      "name": "mintCanonicalFxs",
      "outputs": [],
      "stateMutability": "nonpayable",
      "type": "function"
    },
    {
      "inputs": [],
      "name": "missing_decimals",
      "outputs": [
        {
          "internalType": "uint256",
          "name": "",
          "type": "uint256"
        }
      ],
      "stateMutability": "view",
      "type": "function"
    },
    {
      "inputs": [],
      "name": "name",
      "outputs": [
        {
          "internalType": "string",
          "name": "",
          "type": "string"
        }
      ],
      "stateMutability": "view",
      "type": "function"
    },
    {
      "inputs": [
        {
          "internalType": "address",
          "name": "_owner",
          "type": "address"
        }
      ],
      "name": "nominateNewOwner",
      "outputs": [],
      "stateMutability": "nonpayable",
      "type": "function"
    },
    {
      "inputs": [],
      "name": "nominatedOwner",
      "outputs": [
        {
          "internalType": "address",
          "name": "",
          "type": "address"
        }
      ],
      "stateMutability": "view",
      "type": "function"
    },
    {
      "inputs": [],
      "name": "non_evm_destination_address",
      "outputs": [
        {
          "internalType": "string",
          "name": "",
          "type": "string"
        }
      ],
      "stateMutability": "view",
      "type": "function"
    },
    {
      "inputs": [],
      "name": "owner",
      "outputs": [
        {
          "internalType": "address",
          "name": "",
          "type": "address"
        }
      ],
      "stateMutability": "view",
      "type": "function"
    },
    {
      "inputs": [
        {
          "internalType": "address",
          "name": "canonical_token_address",
          "type": "address"
        },
        {
          "internalType": "uint256",
          "name": "token_amount",
          "type": "uint256"
        },
        {
          "internalType": "bool",
          "name": "do_bridging",
          "type": "bool"
        }
      ],
      "name": "receiveBackViaAMO",
      "outputs": [],
      "stateMutability": "nonpayable",
      "type": "function"
    },
    {
      "inputs": [],
      "name": "recipient",
      "outputs": [
        {
          "internalType": "bytes32",
          "name": "",
          "type": "bytes32"
        }
      ],
      "stateMutability": "view",
      "type": "function"
    },
    {
      "inputs": [
        {
          "internalType": "address",
          "name": "tokenAddress",
          "type": "address"
        },
        {
          "internalType": "uint256",
          "name": "tokenAmount",
          "type": "uint256"
        }
      ],
      "name": "recoverERC20",
      "outputs": [],
      "stateMutability": "nonpayable",
      "type": "function"
    },
    {
      "inputs": [
        {
          "internalType": "address",
          "name": "amo_address",
          "type": "address"
        }
      ],
      "name": "removeAMO",
      "outputs": [],
      "stateMutability": "nonpayable",
      "type": "function"
    },
    {
      "inputs": [
        {
          "internalType": "uint256",
          "name": "token_type",
          "type": "uint256"
        },
        {
          "internalType": "uint256",
          "name": "token_amount",
          "type": "uint256"
        },
        {
          "internalType": "bool",
          "name": "do_swap",
          "type": "bool"
        }
      ],
      "name": "selfBridge",
      "outputs": [],
      "stateMutability": "nonpayable",
      "type": "function"
    },
    {
      "inputs": [
        {
          "internalType": "address",
          "name": "_frax_bridge_address",
          "type": "address"
        },
        {
          "internalType": "address",
          "name": "_fxs_bridge_address",
          "type": "address"
        },
        {
          "internalType": "address",
          "name": "_collateral_bridge_address",
          "type": "address"
        },
        {
          "internalType": "address",
          "name": "_destination_address_override",
          "type": "address"
        },
        {
          "internalType": "string",
          "name": "_non_evm_destination_address",
          "type": "string"
        }
      ],
      "name": "setBridgeInfo",
      "outputs": [],
      "stateMutability": "nonpayable",
      "type": "function"
    },
    {
      "inputs": [
        {
          "internalType": "uint32",
          "name": "_destination",
          "type": "uint32"
        }
      ],
      "name": "setDestination",
      "outputs": [],
      "stateMutability": "nonpayable",
      "type": "function"
    },
    {
      "inputs": [
        {
          "internalType": "address",
          "name": "_new_cc_oracle_address",
          "type": "address"
        }
      ],
      "name": "setOracleAddress",
      "outputs": [],
      "stateMutability": "nonpayable",
      "type": "function"
    },
    {
      "inputs": [
        {
          "internalType": "bytes32",
          "name": "_recipient",
          "type": "bytes32"
        }
      ],
      "name": "setRecipient",
      "outputs": [],
      "stateMutability": "nonpayable",
      "type": "function"
    },
    {
      "inputs": [
        {
          "internalType": "address",
          "name": "_new_timelock",
          "type": "address"
        }
      ],
      "name": "setTimelock",
      "outputs": [],
      "stateMutability": "nonpayable",
      "type": "function"
    },
    {
      "inputs": [],
      "name": "showAllocations",
      "outputs": [
        {
          "internalType": "uint256[12]",
          "name": "allocations",
          "type": "uint256[12]"
        }
      ],
      "stateMutability": "view",
      "type": "function"
    },
    {
      "inputs": [],
      "name": "showTokenBalances",
      "outputs": [
        {
          "internalType": "uint256[5]",
          "name": "tkn_bals",
          "type": "uint256[5]"
        }
      ],
      "stateMutability": "view",
      "type": "function"
    },
    {
      "inputs": [
        {
          "internalType": "uint256",
          "name": "token_type",
          "type": "uint256"
        },
        {
          "internalType": "uint256",
          "name": "token_amount",
          "type": "uint256"
        }
      ],
      "name": "swapAnyForCanonical",
      "outputs": [],
      "stateMutability": "nonpayable",
      "type": "function"
    },
    {
      "inputs": [
        {
          "internalType": "uint256",
          "name": "token_type",
          "type": "uint256"
        },
        {
          "internalType": "uint256",
          "name": "token_amount",
          "type": "uint256"
        }
      ],
      "name": "swapCanonicalForAny",
      "outputs": [],
      "stateMutability": "nonpayable",
      "type": "function"
    },
    {
      "inputs": [],
      "name": "timelock_address",
      "outputs": [
        {
          "internalType": "address",
          "name": "",
          "type": "address"
        }
      ],
      "stateMutability": "view",
      "type": "function"
    }
  ],
  "transactionHash": "0x7f74f8407011f4ab1f6ae58343b8592653682413dcdc76a4c9b513d6e914945b",
  "args": [
    "0x29fAF425F898F1af8fbA07654C83CD9D19f8e270",
    "0x8412ebf45bAC1B340BbE8F318b928C466c4E39CA",
    "0x7a6DF5e183f4DA46a323c525b32f226d24dBa08F",
    [
      "0x28eC4B29657959F4A5052B41079fe32919Ec3Bd3",
      "0xE03494D0033687543a80c9B1ca7D6237F2EA8BD8",
      "0xd0ec216A38F199B0229AE668a96c3Cd9F9f118A6",
      "0xd8176865DD0D672c6Ab4A427572f80A72b4B4A9C",
      "0x51e44FfaD5C2B122C8b635671FCC8139dc636E82"
    ],
    [
      "0x28eC4B29657959F4A5052B41079fe32919Ec3Bd3",
      "0xd0ec216A38F199B0229AE668a96c3Cd9F9f118A6",
      "0x51e44FfaD5C2B122C8b635671FCC8139dc636E82"
    ],
    "0x0000000000000000000000000000000000000000",
    "",
    "FRAX Evmos Nomad CrossChainBridgeBacker"
  ],
  "numDeployments": 1,
  "solcInputHash": "43943d695133a0e6762aaebf4d257721",
  "bytecode": "0x6080604052600060138190556014819055601681905560178190556019819055601a55601c805463ffffffff1916626574681790553480156200004157600080fd5b5060405162005325380380620053258339810160408190526200006491620005da565b8787878787878787876001600160a01b038116620000c85760405162461bcd60e51b815260206004820152601960248201527f4f776e657220616464726573732063616e6e6f74206265203000000000000000604482015260640160405180910390fd5b600080546001600160a01b0319166001600160a01b03831690811782556040805192835260208301919091527fb532073b38c83145e3e5135377a08bf9aab55bc0fd7c1179cd4fb995d2a5159c910160405180910390a150600880546001600160a01b038981166001600160a01b03199283161790925560078054898416908316179055865160028054831691841691909117905560208088015160038054841691851691909117905560408089015160048054851691861691909117815560608a015160058054861691871691909117905560808a0151600680549095169516948517909355805163313ce56760e01b8152905163313ce5679382810193928290030181865afa158015620001e2573d6000803e3d6000fd5b505050506040513d601f19601f82011682018060405250810190620002089190620006cb565b620002189060ff166012620006f7565b601b556200022a600d85600362000303565b50601080546001600160a01b0319166001600160a01b03851617905581516200025b90601190602085019062000360565b5080516200027190600c90602084019062000360565b5050306000818152600b60209081526040808320805460ff191660019081179091556009805491820190557f6e1540171b6c0c960b71a7020d9f60077f6af931a8bbf590da0223dacf75c7af0180546001600160a01b031916851790559282526012815282822082905560158152828220829055601890529081205550620007599d5050505050505050505050505050565b82600381019282156200034e579160200282015b828111156200034e57825182546001600160a01b0319166001600160a01b0390911617825560209092019160019091019062000317565b506200035c929150620003dd565b5090565b8280546200036e906200071d565b90600052602060002090601f0160209004810192826200039257600085556200034e565b82601f10620003ad57805160ff19168380011785556200034e565b828001600101855582156200034e579182015b828111156200034e578251825591602001919060010190620003c0565b5b808211156200035c5760008155600101620003de565b80516001600160a01b03811681146200040c57600080fd5b919050565b634e487b7160e01b600052604160045260246000fd5b604051601f8201601f191681016001600160401b038111828210171562000452576200045262000411565b604052919050565b60405160009060a081016001600160401b038111828210171562000482576200048262000411565b60405290508060a08301848111156200049a57600080fd5b835b81811015620004bf57620004b081620003f4565b8352602092830192016200049c565b50505092915050565b600082601f830112620004da57600080fd5b604051606081016001600160401b0381118282101715620004ff57620004ff62000411565b6040528060608401858111156200051557600080fd5b845b818110156200053a576200052b81620003f4565b83526020928301920162000517565b509195945050505050565b600082601f8301126200055757600080fd5b81516001600160401b0381111562000573576200057362000411565b602062000589601f8301601f1916820162000427565b82815285828487010111156200059e57600080fd5b60005b83811015620005be578581018301518282018401528201620005a1565b83811115620005d05760008385840101525b5095945050505050565b6000806000806000806000806101c0898b031215620005f857600080fd5b6200060389620003f4565b97506200061360208a01620003f4565b96506200062360408a01620003f4565b955089607f8a01126200063557600080fd5b620006448a60608b016200045a565b9450620006568a6101008b01620004c8565b9350620006676101608a01620003f4565b6101808a01519093506001600160401b03808211156200068657600080fd5b620006948c838d0162000545565b93506101a08b0151915080821115620006ac57600080fd5b50620006bb8b828c0162000545565b9150509295985092959890939650565b600060208284031215620006de57600080fd5b815160ff81168114620006f057600080fd5b9392505050565b6000828210156200071857634e487b7160e01b600052601160045260246000fd5b500390565b600181811c908216806200073257607f821691505b6020821081036200075357634e487b7160e01b600052602260045260246000fd5b50919050565b614bbc80620007696000396000f3fe608060405234801561001057600080fd5b506004361061038e5760003560e01c806379ba5097116101de578063bda767ab1161010f578063dedb8840116100ad578063e697af7f1161007c578063e697af7f14610871578063e7735c7e1461087a578063e9967ee11461088d578063eb33e4a9146108a057600080fd5b8063dedb884014610823578063e05261ec14610836578063e23f23181461084b578063e2b4a4ec1461085e57600080fd5b8063d7e0ebb3116100e9578063d7e0ebb3146107bd578063da92c9e6146107d0578063dc6663c7146107f0578063ddfbbf2f1461081057600080fd5b8063bda767ab1461077f578063bdacb303146107a2578063cd71678e146107b557600080fd5b8063919e06ce1161017c578063b134b77011610156578063b134b77014610706578063b269681d14610719578063b61d27f61461073e578063b703ac271461075f57600080fd5b8063919e06ce146106cd57806393272baf146106e057806394582327146106f357600080fd5b80638872e567116101b85780638872e567146106715780638980f11f1461067a5780638d7732031461068d5780638da5cb5b146106ad57600080fd5b806379ba5097146106345780637e34026e1461063c578063837184fe1461065157600080fd5b8063477a3bd1116102c3578063555b616211610261578063640ff7a911610230578063640ff7a9146105f0578063655cfd6d1461060557806366d003ac146106185780637565673a1461062157600080fd5b8063555b61621461058f5780635eccfeba146105b75780636007b3c0146105ca5780636230469d146105dd57600080fd5b80634e8a0f671161029d5780634e8a0f671461053357806351aa64491461053c5780635242e71d1461054f57806353a47bb71461056f57600080fd5b8063477a3bd1146104ed57806349696b201461050d5780634c69c00f1461052057600080fd5b80633001f398116103305780633906f1811161030a5780633906f181146104a95780633ed4e55c146104c9578063408e63bf146104d257806344b7742c146104da57600080fd5b80633001f3981461047757806333f8486f146104975780633452ae2a146104a057600080fd5b806320db46841161036c57806320db4684146103d9578063228d0b68146104115780632621db2f146104245780632d9e6bfa1461044457600080fd5b8063033716bc1461039357806306fdde03146103af5780631627540c146103c4575b600080fd5b61039c60175481565b6040519081526020015b60405180910390f35b6103b76108c0565b6040516103a69190614369565b6103d76103d23660046143ac565b61094e565b005b6103ec6103e73660046143c7565b610a74565b60405173ffffffffffffffffffffffffffffffffffffffff90911681526020016103a6565b6103d761041f3660046143e0565b610aa1565b6006546103ec9073ffffffffffffffffffffffffffffffffffffffff1681565b6104676104523660046143ac565b600a6020526000908152604090205460ff1681565b60405190151581526020016103a6565b61039c6104853660046143ac565b60126020526000908152604090205481565b61039c60195481565b61039c60145481565b61039c6104b73660046143ac565b60156020526000908152604090205481565b61039c601b5481565b6103b7610b52565b6103d76104e83660046143c7565b610b5f565b6004546103ec9073ffffffffffffffffffffffffffffffffffffffff1681565b6103ec61051b3660046143c7565b610c8a565b6103d761052e3660046143ac565b610cc1565b61039c60135481565b6103d761054a3660046143c7565b610dab565b61039c61055d3660046143ac565b60186020526000908152604090205481565b6001546103ec9073ffffffffffffffffffffffffffffffffffffffff1681565b610597610eab565b6040805194855260208501939093529183015260608201526080016103a6565b6103d76105c53660046143e0565b61109e565b6103d76105d83660046143e0565b61114b565b6103d76105eb366004614402565b61124a565b6105f8611324565b6040516103a69190614428565b6103d7610613366004614459565b611623565b61039c601d5481565b6103d761062f366004614494565b6117d3565b6103d761194b565b610644611a96565b6040516103a691906144d4565b6005546103ec9073ffffffffffffffffffffffffffffffffffffffff1681565b61039c60165481565b6103d7610688366004614459565b611c3b565b6003546103ec9073ffffffffffffffffffffffffffffffffffffffff1681565b6000546103ec9073ffffffffffffffffffffffffffffffffffffffff1681565b6103d76106db3660046143ac565b611d57565b61039c6106ee3660046143ac565b61206d565b6103d76107013660046144fd565b61219d565b6103d7610714366004614534565b612517565b601c546107299063ffffffff1681565b60405163ffffffff90911681526020016103a6565b61075161074c366004614562565b612646565b6040516103a69291906145e9565b6010546103ec9073ffffffffffffffffffffffffffffffffffffffff1681565b61046761078d3660046143ac565b600b6020526000908152604090205460ff1681565b6103d76107b03660046143ac565b61276a565b60095461039c565b6103d76107cb3660046143c7565b612854565b6007546103ec9073ffffffffffffffffffffffffffffffffffffffff1681565b6008546103ec9073ffffffffffffffffffffffffffffffffffffffff1681565b6103d761081e3660046143c7565b6128fc565b6103d7610831366004614459565b6129fc565b61083e612ba7565b6040516103a6919061460c565b6103d76108593660046143c7565b612c16565b6103d761086c366004614459565b612d10565b61039c601a5481565b6103d7610888366004614666565b612ebb565b6103d761089b3660046146ca565b6130c1565b6002546103ec9073ffffffffffffffffffffffffffffffffffffffff1681565b600c80546108cd906147dc565b80601f01602080910402602001604051908101604052809291908181526020018280546108f9906147dc565b80156109465780601f1061091b57610100808354040283529160200191610946565b820191906000526020600020905b81548152906001019060200180831161092957829003601f168201915b505050505081565b60005473ffffffffffffffffffffffffffffffffffffffff1633146109fa576040517f08c379a000000000000000000000000000000000000000000000000000000000815260206004820152602f60248201527f4f6e6c792074686520636f6e7472616374206f776e6572206d6179207065726660448201527f6f726d207468697320616374696f6e000000000000000000000000000000000060648201526084015b60405180910390fd5b600180547fffffffffffffffffffffffff00000000000000000000000000000000000000001673ffffffffffffffffffffffffffffffffffffffff83169081179091556040519081527f906a1c6bd7e3091ea86693dd029a831c19049ce77f1dce2ce0bab1cacbabce22906020015b60405180910390a150565b600d8160038110610a8457600080fd5b015473ffffffffffffffffffffffffffffffffffffffff16905081565b60005473ffffffffffffffffffffffffffffffffffffffff16331480610ade575060085473ffffffffffffffffffffffffffffffffffffffff1633145b610b44576040517f08c379a000000000000000000000000000000000000000000000000000000000815260206004820152601560248201527f4e6f74206f776e6572206f722074696d656c6f636b000000000000000000000060448201526064016109f1565b610b4e8282613303565b5050565b601180546108cd906147dc565b60005473ffffffffffffffffffffffffffffffffffffffff16331480610b9c575060085473ffffffffffffffffffffffffffffffffffffffff1633145b610c02576040517f08c379a000000000000000000000000000000000000000000000000000000000815260206004820152601560248201527f4e6f74206f776e6572206f722074696d656c6f636b000000000000000000000060448201526064016109f1565b6003546040517ff537fe0e0000000000000000000000000000000000000000000000000000000081526004810183905273ffffffffffffffffffffffffffffffffffffffff9091169063f537fe0e906024015b600060405180830381600087803b158015610c6f57600080fd5b505af1158015610c83573d6000803e3d6000fd5b5050505050565b60098181548110610c9a57600080fd5b60009182526020909120015473ffffffffffffffffffffffffffffffffffffffff16905081565b60005473ffffffffffffffffffffffffffffffffffffffff16331480610cfe575060085473ffffffffffffffffffffffffffffffffffffffff1633145b610d64576040517f08c379a000000000000000000000000000000000000000000000000000000000815260206004820152601560248201527f4e6f74206f776e6572206f722074696d656c6f636b000000000000000000000060448201526064016109f1565b600780547fffffffffffffffffffffffff00000000000000000000000000000000000000001673ffffffffffffffffffffffffffffffffffffffff92909216919091179055565b60005473ffffffffffffffffffffffffffffffffffffffff16331480610de8575060085473ffffffffffffffffffffffffffffffffffffffff1633145b610e4e576040517f08c379a000000000000000000000000000000000000000000000000000000000815260206004820152601560248201527f4e6f74206f776e6572206f722074696d656c6f636b000000000000000000000060448201526064016109f1565b6003546040517f6a257ebc0000000000000000000000000000000000000000000000000000000081523060048201526024810183905273ffffffffffffffffffffffffffffffffffffffff90911690636a257ebc90604401610c55565b6000806000806000610ebb611a96565b604081015160a082015161012083015161016084015192985090965094509250905060015b60095481101561109657600073ffffffffffffffffffffffffffffffffffffffff1660098281548110610f1557610f1561482f565b60009182526020909120015473ffffffffffffffffffffffffffffffffffffffff1614801590610f8e5750600a600060098381548110610f5757610f5761482f565b600091825260208083209091015473ffffffffffffffffffffffffffffffffffffffff16835282019290925260400190205460ff16155b156110845760008060008060098581548110610fac57610fac61482f565b9060005260206000200160009054906101000a900473ffffffffffffffffffffffffffffffffffffffff1673ffffffffffffffffffffffffffffffffffffffff16632cc1ce536040518163ffffffff1660e01b8152600401608060405180830381865afa158015611021573d6000803e3d6000fd5b505050506040513d601f19601f82011682018060405250810190611045919061485e565b9350935093509350838a61105991906148c3565b9950611065838a6148c3565b985061107182896148c3565b975061107d81886148c3565b9650505050505b8061108e816148db565b915050610ee0565b505090919293565b60005473ffffffffffffffffffffffffffffffffffffffff163314806110db575060085473ffffffffffffffffffffffffffffffffffffffff1633145b611141576040517f08c379a000000000000000000000000000000000000000000000000000000000815260206004820152601560248201527f4e6f74206f776e6572206f722074696d656c6f636b000000000000000000000060448201526064016109f1565b610b4e8282613552565b60005473ffffffffffffffffffffffffffffffffffffffff16331480611188575060085473ffffffffffffffffffffffffffffffffffffffff1633145b6111ee576040517f08c379a000000000000000000000000000000000000000000000000000000000815260206004820152601560248201527f4e6f74206f776e6572206f722074696d656c6f636b000000000000000000000060448201526064016109f1565b8160000361122057600254600354610b4e9173ffffffffffffffffffffffffffffffffffffffff90811691168361375a565b600454600554610b4e9173ffffffffffffffffffffffffffffffffffffffff90811691168361375a565b60005473ffffffffffffffffffffffffffffffffffffffff16331480611287575060085473ffffffffffffffffffffffffffffffffffffffff1633145b6112ed576040517f08c379a000000000000000000000000000000000000000000000000000000000815260206004820152601560248201527f4e6f74206f776e6572206f722074696d656c6f636b000000000000000000000060448201526064016109f1565b601c80547fffffffffffffffffffffffffffffffffffffffffffffffffffffffff000000001663ffffffff92909216919091179055565b61132c6141ac565b6002546040517f70a0823100000000000000000000000000000000000000000000000000000000815230600482015273ffffffffffffffffffffffffffffffffffffffff909116906370a0823190602401602060405180830381865afa15801561139a573d6000803e3d6000fd5b505050506040513d601f19601f820116820180604052508101906113be9190614913565b81526003546040517f70a0823100000000000000000000000000000000000000000000000000000000815230600482015273ffffffffffffffffffffffffffffffffffffffff909116906370a0823190602401602060405180830381865afa15801561142e573d6000803e3d6000fd5b505050506040513d601f19601f820116820180604052508101906114529190614913565b6020820152600480546040517f70a08231000000000000000000000000000000000000000000000000000000008152309281019290925273ffffffffffffffffffffffffffffffffffffffff16906370a0823190602401602060405180830381865afa1580156114c6573d6000803e3d6000fd5b505050506040513d601f19601f820116820180604052508101906114ea9190614913565b81600260200201526005546040517f70a0823100000000000000000000000000000000000000000000000000000000815230600482015273ffffffffffffffffffffffffffffffffffffffff909116906370a0823190602401602060405180830381865afa158015611560573d6000803e3d6000fd5b505050506040513d601f19601f820116820180604052508101906115849190614913565b60608201526006546040517f70a0823100000000000000000000000000000000000000000000000000000000815230600482015273ffffffffffffffffffffffffffffffffffffffff909116906370a0823190602401602060405180830381865afa1580156115f7573d6000803e3d6000fd5b505050506040513d601f19601f8201168201806040525081019061161b9190614913565b608082015290565b60005473ffffffffffffffffffffffffffffffffffffffff16331480611660575060085473ffffffffffffffffffffffffffffffffffffffff1633145b6116c6576040517f08c379a000000000000000000000000000000000000000000000000000000000815260206004820152601560248201527f4e6f74206f776e6572206f722074696d656c6f636b000000000000000000000060448201526064016109f1565b73ffffffffffffffffffffffffffffffffffffffff82166000908152600b6020526040902054829060ff16611757576040517f08c379a000000000000000000000000000000000000000000000000000000000815260206004820152600b60248201527f496e76616c696420414d4f00000000000000000000000000000000000000000060448201526064016109f1565b73ffffffffffffffffffffffffffffffffffffffff83166000908152601260205260408120805484929061178c9084906148c3565b9250508190555081601360008282546117a591906148c3565b90915550506003546117ce9073ffffffffffffffffffffffffffffffffffffffff16848461375a565b505050565b600354839073ffffffffffffffffffffffffffffffffffffffff80831691161480611818575060055473ffffffffffffffffffffffffffffffffffffffff8281169116145b8061183d575060065473ffffffffffffffffffffffffffffffffffffffff8281169116145b6118a3576040517f08c379a000000000000000000000000000000000000000000000000000000000815260206004820152601760248201527f496e76616c69642063616e6f6e6963616c20746f6b656e00000000000000000060448201526064016109f1565b336000818152600b602052604090205460ff1661191c576040517f08c379a000000000000000000000000000000000000000000000000000000000815260206004820152600b60248201527f496e76616c696420414d4f00000000000000000000000000000000000000000060448201526064016109f1565b611928853330876138c3565b60006119338661206d565b9050611943338287876001613a59565b505050505050565b60015473ffffffffffffffffffffffffffffffffffffffff1633146119f2576040517f08c379a000000000000000000000000000000000000000000000000000000000815260206004820152603560248201527f596f75206d757374206265206e6f6d696e61746564206265666f726520796f7560448201527f2063616e20616363657074206f776e657273686970000000000000000000000060648201526084016109f1565b6000546001546040805173ffffffffffffffffffffffffffffffffffffffff93841681529290911660208301527fb532073b38c83145e3e5135377a08bf9aab55bc0fd7c1179cd4fb995d2a5159c910160405180910390a160018054600080547fffffffffffffffffffffffff000000000000000000000000000000000000000090811673ffffffffffffffffffffffffffffffffffffffff841617909155169055565b611a9e6141ca565b6000611aa8611324565b60208101518151919250611abb916148c3565b80835260135460208401819052611ad1916148c3565b604080840191909152606082015190820151611aed91906148c3565b6060830181905260165460808401819052611b07916148c3565b60a08301526007546005546040517f41976e0900000000000000000000000000000000000000000000000000000000815273ffffffffffffffffffffffffffffffffffffffff9182166004820152620f42409291909116906341976e0990602401602060405180830381865afa158015611b85573d6000803e3d6000fd5b505050506040513d601f19601f82011682018060405250810190611ba99190614913565b60a0840151611bb8919061492c565b611bc29190614969565b60c0830152608081015160e083018190526019546101008401819052611be7916148c3565b610120830152601b54611bfb90600a614ac6565b610120830151611c0b919061492c565b610140830181905260c08301516040840151611c2791906148c3565b611c3191906148c3565b6101608301525090565b60005473ffffffffffffffffffffffffffffffffffffffff16331480611c78575060085473ffffffffffffffffffffffffffffffffffffffff1633145b611cde576040517f08c379a000000000000000000000000000000000000000000000000000000000815260206004820152601560248201527f4e6f74206f776e6572206f722074696d656c6f636b000000000000000000000060448201526064016109f1565b600054611d0390839073ffffffffffffffffffffffffffffffffffffffff168361375a565b6040805173ffffffffffffffffffffffffffffffffffffffff84168152602081018390527f55350610fe57096d8c0ffa30beede987326bccfcb0b4415804164d0dd50ce8b191015b60405180910390a15050565b60005473ffffffffffffffffffffffffffffffffffffffff16331480611d94575060085473ffffffffffffffffffffffffffffffffffffffff1633145b611dfa576040517f08c379a000000000000000000000000000000000000000000000000000000000815260206004820152601560248201527f4e6f74206f776e6572206f722074696d656c6f636b000000000000000000000060448201526064016109f1565b73ffffffffffffffffffffffffffffffffffffffff8116611e77576040517f08c379a000000000000000000000000000000000000000000000000000000000815260206004820152601560248201527f5a65726f2061646472657373206465746563746564000000000000000000000060448201526064016109f1565b73ffffffffffffffffffffffffffffffffffffffff81166000908152600b602052604090205460ff161515600114611f0b576040517f08c379a000000000000000000000000000000000000000000000000000000000815260206004820152601360248201527f41646472657373206e6f6e6578697374616e740000000000000000000000000060448201526064016109f1565b73ffffffffffffffffffffffffffffffffffffffff81166000908152600b6020526040812080547fffffffffffffffffffffffffffffffffffffffffffffffffffffffffffffff001690555b600954811015612026578173ffffffffffffffffffffffffffffffffffffffff1660098281548110611f8b57611f8b61482f565b60009182526020909120015473ffffffffffffffffffffffffffffffffffffffff160361201457600060098281548110611fc757611fc761482f565b9060005260206000200160006101000a81548173ffffffffffffffffffffffffffffffffffffffff021916908373ffffffffffffffffffffffffffffffffffffffff160217905550612026565b8061201e816148db565b915050611f57565b5060405173ffffffffffffffffffffffffffffffffffffffff821681527fcfdb9256a3d90cc6d479617ca43d8c8d264a9f5fe7f480029c4d918862c46db490602001610a69565b60025460009073ffffffffffffffffffffffffffffffffffffffff838116911614806120b3575060035473ffffffffffffffffffffffffffffffffffffffff8381169116145b156120c057506000919050565b60045473ffffffffffffffffffffffffffffffffffffffff83811691161480612103575060055473ffffffffffffffffffffffffffffffffffffffff8381169116145b1561211057506001919050565b60065473ffffffffffffffffffffffffffffffffffffffff9081169083160361213b57506002919050565b6040517f08c379a000000000000000000000000000000000000000000000000000000000815260206004820152601b60248201527f676574546f6b656e547970653a20496e76616c696420746f6b656e000000000060448201526064016109f1565b60005473ffffffffffffffffffffffffffffffffffffffff163314806121da575060085473ffffffffffffffffffffffffffffffffffffffff1633145b612240576040517f08c379a000000000000000000000000000000000000000000000000000000000815260206004820152601560248201527f4e6f74206f776e6572206f722074696d656c6f636b000000000000000000000060448201526064016109f1565b73ffffffffffffffffffffffffffffffffffffffff82166122bd576040517f08c379a000000000000000000000000000000000000000000000000000000000815260206004820152601560248201527f5a65726f2061646472657373206465746563746564000000000000000000000060448201526064016109f1565b80156123165773ffffffffffffffffffffffffffffffffffffffff82166000908152600a6020526040902080547fffffffffffffffffffffffffffffffffffffffffffffffffffffffffffffff00166001179055612394565b6000806000808573ffffffffffffffffffffffffffffffffffffffff16632cc1ce536040518163ffffffff1660e01b8152600401608060405180830381865afa158015612367573d6000803e3d6000fd5b505050506040513d601f19601f8201168201806040525081019061238b919061485e565b50505050505050505b73ffffffffffffffffffffffffffffffffffffffff82166000908152600b602052604090205460ff1615612424576040517f08c379a000000000000000000000000000000000000000000000000000000000815260206004820152601660248201527f4164647265737320616c7265616479206578697374730000000000000000000060448201526064016109f1565b73ffffffffffffffffffffffffffffffffffffffff82166000818152600b6020908152604080832080547fffffffffffffffffffffffffffffffffffffffffffffffffffffffffffffff001660019081179091556009805491820190557f6e1540171b6c0c960b71a7020d9f60077f6af931a8bbf590da0223dacf75c7af0180547fffffffffffffffffffffffff000000000000000000000000000000000000000016851790556012825280832083905560158252808320839055601882528083209290925590519182527faa5bd6bda335b0c74f281b4b10d444ed06cd74963d7d77daa9a274eb4a7b36399101611d4b565b60005473ffffffffffffffffffffffffffffffffffffffff16331480612554575060085473ffffffffffffffffffffffffffffffffffffffff1633145b6125ba576040517f08c379a000000000000000000000000000000000000000000000000000000000815260206004820152601560248201527f4e6f74206f776e6572206f722074696d656c6f636b000000000000000000000060448201526064016109f1565b8215806125c75750826001145b806125d25750826002145b612638576040517f08c379a000000000000000000000000000000000000000000000000000000000815260206004820152601260248201527f496e76616c696420746f6b656e2074797065000000000000000000000000000060448201526064016109f1565b6117ce308484600185613a59565b6000805460609073ffffffffffffffffffffffffffffffffffffffff16331480612687575060085473ffffffffffffffffffffffffffffffffffffffff1633145b6126ed576040517f08c379a000000000000000000000000000000000000000000000000000000000815260206004820152601560248201527f4e6f74206f776e6572206f722074696d656c6f636b000000000000000000000060448201526064016109f1565b6000808773ffffffffffffffffffffffffffffffffffffffff16878787604051612718929190614ad2565b60006040518083038185875af1925050503d8060008114612755576040519150601f19603f3d011682016040523d82523d6000602084013e61275a565b606091505b5090999098509650505050505050565b60005473ffffffffffffffffffffffffffffffffffffffff163314806127a7575060085473ffffffffffffffffffffffffffffffffffffffff1633145b61280d576040517f08c379a000000000000000000000000000000000000000000000000000000000815260206004820152601560248201527f4e6f74206f776e6572206f722074696d656c6f636b000000000000000000000060448201526064016109f1565b600880547fffffffffffffffffffffffff00000000000000000000000000000000000000001673ffffffffffffffffffffffffffffffffffffffff92909216919091179055565b60005473ffffffffffffffffffffffffffffffffffffffff16331480612891575060085473ffffffffffffffffffffffffffffffffffffffff1633145b6128f7576040517f08c379a000000000000000000000000000000000000000000000000000000000815260206004820152601560248201527f4e6f74206f776e6572206f722074696d656c6f636b000000000000000000000060448201526064016109f1565b601d55565b60005473ffffffffffffffffffffffffffffffffffffffff16331480612939575060085473ffffffffffffffffffffffffffffffffffffffff1633145b61299f576040517f08c379a000000000000000000000000000000000000000000000000000000000815260206004820152601560248201527f4e6f74206f776e6572206f722074696d656c6f636b000000000000000000000060448201526064016109f1565b6005546040517f6a257ebc0000000000000000000000000000000000000000000000000000000081523060048201526024810183905273ffffffffffffffffffffffffffffffffffffffff90911690636a257ebc90604401610c55565b60005473ffffffffffffffffffffffffffffffffffffffff16331480612a39575060085473ffffffffffffffffffffffffffffffffffffffff1633145b612a9f576040517f08c379a000000000000000000000000000000000000000000000000000000000815260206004820152601560248201527f4e6f74206f776e6572206f722074696d656c6f636b000000000000000000000060448201526064016109f1565b73ffffffffffffffffffffffffffffffffffffffff82166000908152600b6020526040902054829060ff16612b30576040517f08c379a000000000000000000000000000000000000000000000000000000000815260206004820152600b60248201527f496e76616c696420414d4f00000000000000000000000000000000000000000060448201526064016109f1565b73ffffffffffffffffffffffffffffffffffffffff831660009081526015602052604081208054849290612b659084906148c3565b925050819055508160166000828254612b7e91906148c3565b90915550506005546117ce9073ffffffffffffffffffffffffffffffffffffffff16848461375a565b60606009805480602002602001604051908101604052809291908181526020018280548015612c0c57602002820191906000526020600020905b815473ffffffffffffffffffffffffffffffffffffffff168152600190910190602001808311612be1575b5050505050905090565b60005473ffffffffffffffffffffffffffffffffffffffff16331480612c53575060085473ffffffffffffffffffffffffffffffffffffffff1633145b612cb9576040517f08c379a000000000000000000000000000000000000000000000000000000000815260206004820152601560248201527f4e6f74206f776e6572206f722074696d656c6f636b000000000000000000000060448201526064016109f1565b6005546040517ff537fe0e0000000000000000000000000000000000000000000000000000000081526004810183905273ffffffffffffffffffffffffffffffffffffffff9091169063f537fe0e90602401610c55565b60005473ffffffffffffffffffffffffffffffffffffffff16331480612d4d575060085473ffffffffffffffffffffffffffffffffffffffff1633145b612db3576040517f08c379a000000000000000000000000000000000000000000000000000000000815260206004820152601560248201527f4e6f74206f776e6572206f722074696d656c6f636b000000000000000000000060448201526064016109f1565b73ffffffffffffffffffffffffffffffffffffffff82166000908152600b6020526040902054829060ff16612e44576040517f08c379a000000000000000000000000000000000000000000000000000000000815260206004820152600b60248201527f496e76616c696420414d4f00000000000000000000000000000000000000000060448201526064016109f1565b73ffffffffffffffffffffffffffffffffffffffff831660009081526018602052604081208054849290612e799084906148c3565b925050819055508160196000828254612e9291906148c3565b90915550506006546117ce9073ffffffffffffffffffffffffffffffffffffffff16848461375a565b60005473ffffffffffffffffffffffffffffffffffffffff16331480612ef8575060085473ffffffffffffffffffffffffffffffffffffffff1633145b612f5e576040517f08c379a000000000000000000000000000000000000000000000000000000000815260206004820152601560248201527f4e6f74206f776e6572206f722074696d656c6f636b000000000000000000000060448201526064016109f1565b82600003612ff8576003546040517f0397845200000000000000000000000000000000000000000000000000000000815273ffffffffffffffffffffffffffffffffffffffff848116600483015260248201849052909116906303978452906044015b600060405180830381600087803b158015612fdb57600080fd5b505af1158015612fef573d6000803e3d6000fd5b50505050505050565b8260010361305f576005546040517f0397845200000000000000000000000000000000000000000000000000000000815273ffffffffffffffffffffffffffffffffffffffff84811660048301526024820184905290911690630397845290604401612fc1565b6040517f08c379a000000000000000000000000000000000000000000000000000000000815260206004820152601260248201527f496e76616c696420746f6b656e5f74797065000000000000000000000000000060448201526064016109f1565b60005473ffffffffffffffffffffffffffffffffffffffff163314806130fe575060085473ffffffffffffffffffffffffffffffffffffffff1633145b613164576040517f08c379a000000000000000000000000000000000000000000000000000000000815260206004820152601560248201527f4e6f74206f776e6572206f722074696d656c6f636b000000000000000000000060448201526064016109f1565b73ffffffffffffffffffffffffffffffffffffffff85161580159061319e575073ffffffffffffffffffffffffffffffffffffffff841615155b80156131bf575073ffffffffffffffffffffffffffffffffffffffff831615155b613225576040517f08c379a000000000000000000000000000000000000000000000000000000000815260206004820152601660248201527f496e76616c69642062726964676520616464726573730000000000000000000060448201526064016109f1565b6040805160608101825273ffffffffffffffffffffffffffffffffffffffff8088168252868116602083015285169181019190915261326890600d9060036141e9565b50601080547fffffffffffffffffffffffff00000000000000000000000000000000000000001673ffffffffffffffffffffffffffffffffffffffff841617905580516132bc906011906020840190614266565b507f2416e445d0e4d663ba206f921f8fd828f602f9a2b047e891e48ad0db5bbbf2f285858585856040516132f4959493929190614ae2565b60405180910390a15050505050565b8160000361344b576002546003546040517f095ea7b300000000000000000000000000000000000000000000000000000000815273ffffffffffffffffffffffffffffffffffffffff91821660048201526024810184905291169063095ea7b3906044016020604051808303816000875af1158015613386573d6000803e3d6000fd5b505050506040513d601f19601f820116820180604052508101906133aa9190614b36565b506003546002546040517f9006a50f00000000000000000000000000000000000000000000000000000000815273ffffffffffffffffffffffffffffffffffffffff918216600482015260248101849052911690639006a50f906044015b6020604051808303816000875af1158015613427573d6000803e3d6000fd5b505050506040513d601f19601f820116820180604052508101906117ce9190614913565b600480546005546040517f095ea7b300000000000000000000000000000000000000000000000000000000815273ffffffffffffffffffffffffffffffffffffffff9182169381019390935260248301849052169063095ea7b3906044016020604051808303816000875af11580156134c8573d6000803e3d6000fd5b505050506040513d601f19601f820116820180604052508101906134ec9190614b36565b50600554600480546040517f9006a50f00000000000000000000000000000000000000000000000000000000815273ffffffffffffffffffffffffffffffffffffffff918216928101929092526024820184905290911690639006a50f90604401613408565b81600003613658576003546040517f095ea7b300000000000000000000000000000000000000000000000000000000815273ffffffffffffffffffffffffffffffffffffffff90911660048201819052602482018390529063095ea7b3906044016020604051808303816000875af11580156135d2573d6000803e3d6000fd5b505050506040513d601f19601f820116820180604052508101906135f69190614b36565b506003546002546040517f280cf3ed00000000000000000000000000000000000000000000000000000000815273ffffffffffffffffffffffffffffffffffffffff91821660048201526024810184905291169063280cf3ed90604401613408565b6005546040517f095ea7b300000000000000000000000000000000000000000000000000000000815273ffffffffffffffffffffffffffffffffffffffff90911660048201819052602482018390529063095ea7b3906044016020604051808303816000875af11580156136d0573d6000803e3d6000fd5b505050506040513d601f19601f820116820180604052508101906136f49190614b36565b50600554600480546040517f280cf3ed00000000000000000000000000000000000000000000000000000000815273ffffffffffffffffffffffffffffffffffffffff91821692810192909252602482018490529091169063280cf3ed90604401613408565b6040805173ffffffffffffffffffffffffffffffffffffffff8481166024830152604480830185905283518084039091018152606490920183526020820180517bffffffffffffffffffffffffffffffffffffffffffffffffffffffff167fa9059cbb0000000000000000000000000000000000000000000000000000000017905291516000928392908716916137f19190614b53565b6000604051808303816000865af19150503d806000811461382e576040519150601f19603f3d011682016040523d82523d6000602084013e613833565b606091505b509150915081801561385d57508051158061385d57508080602001905181019061385d9190614b36565b610c83576040517f08c379a000000000000000000000000000000000000000000000000000000000815260206004820152601f60248201527f5472616e7366657248656c7065723a205452414e534645525f4641494c45440060448201526064016109f1565b6040805173ffffffffffffffffffffffffffffffffffffffff85811660248301528481166044830152606480830185905283518084039091018152608490920183526020820180517bffffffffffffffffffffffffffffffffffffffffffffffffffffffff167f23b872dd0000000000000000000000000000000000000000000000000000000017905291516000928392908816916139629190614b53565b6000604051808303816000865af19150503d806000811461399f576040519150601f19603f3d011682016040523d82523d6000602084013e6139a4565b606091505b50915091508180156139ce5750805115806139ce5750808060200190518101906139ce9190614b36565b611943576040517f08c379a0000000000000000000000000000000000000000000000000000000008152602060048201526024808201527f5472616e7366657248656c7065723a205452414e534645525f46524f4d5f464160448201527f494c45440000000000000000000000000000000000000000000000000000000060648201526084016109f1565b8115613ade5783600003613a7d578015613a7857613a78600084613552565b613a96565b83600103613a96578015613a9657613a96600184613552565b601054309073ffffffffffffffffffffffffffffffffffffffff1615613ad1575060105473ffffffffffffffffffffffffffffffffffffffff165b613adc858286613d84565b505b83600003613bc65773ffffffffffffffffffffffffffffffffffffffff85166000908152601260205260409020548310613b3d5773ffffffffffffffffffffffffffffffffffffffff8516600090815260126020526040812055613b78565b73ffffffffffffffffffffffffffffffffffffffff851660009081526012602052604081208054859290613b72908490614b6f565b90915550505b6013548310613b8b576000601355613ba3565b8260136000828254613b9d9190614b6f565b90915550505b8115613bc1578260146000828254613bbb91906148c3565b90915550505b610c83565b83600103613ca35773ffffffffffffffffffffffffffffffffffffffff85166000908152601560205260409020548310613c255773ffffffffffffffffffffffffffffffffffffffff8516600090815260156020526040812055613c60565b73ffffffffffffffffffffffffffffffffffffffff851660009081526015602052604081208054859290613c5a908490614b6f565b90915550505b6016548310613c73576000601655613c8b565b8260166000828254613c859190614b6f565b90915550505b8115613bc1578260176000828254613bbb91906148c3565b73ffffffffffffffffffffffffffffffffffffffff85166000908152601860205260409020548310613cfa5773ffffffffffffffffffffffffffffffffffffffff8516600090815260186020526040812055613d35565b73ffffffffffffffffffffffffffffffffffffffff851660009081526018602052604081208054859290613d2f908490614b6f565b90915550505b6019548310613d48576000601955613d60565b8260196000828254613d5a9190614b6f565b90915550505b8115610c835782601a6000828254613d7891906148c3565b90915550505050505050565b82600003613ee85760025473ffffffffffffffffffffffffffffffffffffffff1663095ea7b3600d8560038110613dbd57613dbd61482f565b015460405160e083901b7fffffffff0000000000000000000000000000000000000000000000000000000016815273ffffffffffffffffffffffffffffffffffffffff9091166004820152602481018490526044016020604051808303816000875af1158015613e31573d6000803e3d6000fd5b505050506040513d601f19601f82011682018060405250810190613e559190614b36565b50600d8360038110613e6957613e6961482f565b0154600254601c54601d546040517fa9bd122600000000000000000000000000000000000000000000000000000000815273ffffffffffffffffffffffffffffffffffffffff93841660048201526024810186905263ffffffff909216604483015260648201526000608482015291169063a9bd12269060a401612fc1565b826001036140505760025473ffffffffffffffffffffffffffffffffffffffff1663095ea7b3600d8560038110613f2157613f2161482f565b015460405160e083901b7fffffffff0000000000000000000000000000000000000000000000000000000016815273ffffffffffffffffffffffffffffffffffffffff9091166004820152602481018490526044016020604051808303816000875af1158015613f95573d6000803e3d6000fd5b505050506040513d601f19601f82011682018060405250810190613fb99190614b36565b50600d8360038110613fcd57613fcd61482f565b015460048054601c54601d546040517fa9bd122600000000000000000000000000000000000000000000000000000000815273ffffffffffffffffffffffffffffffffffffffff938416948101949094526024840186905263ffffffff90911660448401526064830152600060848301529091169063a9bd12269060a401612fc1565b60025473ffffffffffffffffffffffffffffffffffffffff1663095ea7b3600d85600381106140815761408161482f565b015460405160e083901b7fffffffff0000000000000000000000000000000000000000000000000000000016815273ffffffffffffffffffffffffffffffffffffffff9091166004820152602481018490526044016020604051808303816000875af11580156140f5573d6000803e3d6000fd5b505050506040513d601f19601f820116820180604052508101906141199190614b36565b50600d836003811061412d5761412d61482f565b0154600654601c54601d546040517fa9bd122600000000000000000000000000000000000000000000000000000000815273ffffffffffffffffffffffffffffffffffffffff93841660048201526024810186905263ffffffff909216604483015260648201526000608482015291169063a9bd12269060a401612fc1565b6040518060a001604052806005906020820280368337509192915050565b604051806101800160405280600c906020820280368337509192915050565b8260038101928215614256579160200282015b8281111561425657825182547fffffffffffffffffffffffff00000000000000000000000000000000000000001673ffffffffffffffffffffffffffffffffffffffff9091161782556020909201916001909101906141fc565b506142629291506142da565b5090565b828054614272906147dc565b90600052602060002090601f0160209004810192826142945760008555614256565b82601f106142ad57805160ff1916838001178555614256565b82800160010185558215614256579182015b828111156142565782518255916020019190600101906142bf565b5b8082111561426257600081556001016142db565b60005b8381101561430a5781810151838201526020016142f2565b83811115614319576000848401525b50505050565b600081518084526143378160208601602086016142ef565b601f017fffffffffffffffffffffffffffffffffffffffffffffffffffffffffffffffe0169290920160200192915050565b60208152600061437c602083018461431f565b9392505050565b803573ffffffffffffffffffffffffffffffffffffffff811681146143a757600080fd5b919050565b6000602082840312156143be57600080fd5b61437c82614383565b6000602082840312156143d957600080fd5b5035919050565b600080604083850312156143f357600080fd5b50508035926020909101359150565b60006020828403121561441457600080fd5b813563ffffffff8116811461437c57600080fd5b60a08101818360005b6005811015614450578151835260209283019290910190600101614431565b50505092915050565b6000806040838503121561446c57600080fd5b61447583614383565b946020939093013593505050565b801515811461449157600080fd5b50565b6000806000606084860312156144a957600080fd5b6144b284614383565b92506020840135915060408401356144c981614483565b809150509250925092565b6101808101818360005b600c8110156144505781518352602092830192909101906001016144de565b6000806040838503121561451057600080fd5b61451983614383565b9150602083013561452981614483565b809150509250929050565b60008060006060848603121561454957600080fd5b833592506020840135915060408401356144c981614483565b6000806000806060858703121561457857600080fd5b61458185614383565b935060208501359250604085013567ffffffffffffffff808211156145a557600080fd5b818701915087601f8301126145b957600080fd5b8135818111156145c857600080fd5b8860208285010111156145da57600080fd5b95989497505060200194505050565b8215158152604060208201526000614604604083018461431f565b949350505050565b6020808252825182820181905260009190848201906040850190845b8181101561465a57835173ffffffffffffffffffffffffffffffffffffffff1683529284019291840191600101614628565b50909695505050505050565b60008060006060848603121561467b57600080fd5b8335925061468b60208501614383565b9150604084013590509250925092565b7f4e487b7100000000000000000000000000000000000000000000000000000000600052604160045260246000fd5b600080600080600060a086880312156146e257600080fd5b6146eb86614383565b94506146f960208701614383565b935061470760408701614383565b925061471560608701614383565b9150608086013567ffffffffffffffff8082111561473257600080fd5b818801915088601f83011261474657600080fd5b8135818111156147585761475861469b565b604051601f82017fffffffffffffffffffffffffffffffffffffffffffffffffffffffffffffffe0908116603f0116810190838211818310171561479e5761479e61469b565b816040528281528b60208487010111156147b757600080fd5b8260208601602083013760006020848301015280955050505050509295509295909350565b600181811c908216806147f057607f821691505b602082108103614829577f4e487b7100000000000000000000000000000000000000000000000000000000600052602260045260246000fd5b50919050565b7f4e487b7100000000000000000000000000000000000000000000000000000000600052603260045260246000fd5b6000806000806080858703121561487457600080fd5b505082516020840151604085015160609095015191969095509092509050565b7f4e487b7100000000000000000000000000000000000000000000000000000000600052601160045260246000fd5b600082198211156148d6576148d6614894565b500190565b60007fffffffffffffffffffffffffffffffffffffffffffffffffffffffffffffffff820361490c5761490c614894565b5060010190565b60006020828403121561492557600080fd5b5051919050565b6000817fffffffffffffffffffffffffffffffffffffffffffffffffffffffffffffffff048311821515161561496457614964614894565b500290565b60008261499f577f4e487b7100000000000000000000000000000000000000000000000000000000600052601260045260246000fd5b500490565b600181815b808511156149fd57817fffffffffffffffffffffffffffffffffffffffffffffffffffffffffffffffff048211156149e3576149e3614894565b808516156149f057918102915b93841c93908002906149a9565b509250929050565b600082614a1457506001614ac0565b81614a2157506000614ac0565b8160018114614a375760028114614a4157614a5d565b6001915050614ac0565b60ff841115614a5257614a52614894565b50506001821b614ac0565b5060208310610133831016604e8410600b8410161715614a80575081810a614ac0565b614a8a83836149a4565b807fffffffffffffffffffffffffffffffffffffffffffffffffffffffffffffffff04821115614abc57614abc614894565b0290505b92915050565b600061437c8383614a05565b8183823760009101908152919050565b600073ffffffffffffffffffffffffffffffffffffffff80881683528087166020840152808616604084015280851660608401525060a06080830152614b2b60a083018461431f565b979650505050505050565b600060208284031215614b4857600080fd5b815161437c81614483565b60008251614b658184602087016142ef565b9190910192915050565b600082821015614b8157614b81614894565b50039056fea264697066735822122065d0af0d3c8c0c5e9c268cbfcc5a6902376d87b95477c9231945fba55762037864736f6c634300080d0033",
  "devdoc": {
    "kind": "dev",
    "methods": {},
    "version": 1
  },
  "userdoc": {
    "kind": "user",
    "methods": {},
    "version": 1
  },
  "storageLayout": {
    "storage": [
      {
        "astId": 2539,
        "contract": "contracts/CrossChainBridgeBacker_EVMOS_Nomad.sol:CrossChainBridgeBacker_EVMOS_Nomad",
        "label": "owner",
        "offset": 0,
        "slot": "0",
        "type": "t_address"
      },
      {
        "astId": 2541,
        "contract": "contracts/CrossChainBridgeBacker_EVMOS_Nomad.sol:CrossChainBridgeBacker_EVMOS_Nomad",
        "label": "nominatedOwner",
        "offset": 0,
        "slot": "1",
        "type": "t_address"
      },
      {
        "astId": 8589,
        "contract": "contracts/CrossChainBridgeBacker_EVMOS_Nomad.sol:CrossChainBridgeBacker_EVMOS_Nomad",
        "label": "anyFRAX",
        "offset": 0,
        "slot": "2",
        "type": "t_contract(IAnyswapV4ERC20)526"
      },
      {
        "astId": 8592,
        "contract": "contracts/CrossChainBridgeBacker_EVMOS_Nomad.sol:CrossChainBridgeBacker_EVMOS_Nomad",
        "label": "canFRAX",
        "offset": 0,
        "slot": "3",
        "type": "t_contract(CrossChainCanonical)3610"
      },
      {
        "astId": 8595,
        "contract": "contracts/CrossChainBridgeBacker_EVMOS_Nomad.sol:CrossChainBridgeBacker_EVMOS_Nomad",
        "label": "anyFXS",
        "offset": 0,
        "slot": "4",
        "type": "t_contract(IAnyswapV4ERC20)526"
      },
      {
        "astId": 8598,
        "contract": "contracts/CrossChainBridgeBacker_EVMOS_Nomad.sol:CrossChainBridgeBacker_EVMOS_Nomad",
        "label": "canFXS",
        "offset": 0,
        "slot": "5",
        "type": "t_contract(CrossChainCanonical)3610"
      },
      {
        "astId": 8601,
        "contract": "contracts/CrossChainBridgeBacker_EVMOS_Nomad.sol:CrossChainBridgeBacker_EVMOS_Nomad",
        "label": "collateral_token",
        "offset": 0,
        "slot": "6",
        "type": "t_contract(ERC20)1627"
      },
      {
        "astId": 8604,
        "contract": "contracts/CrossChainBridgeBacker_EVMOS_Nomad.sol:CrossChainBridgeBacker_EVMOS_Nomad",
        "label": "cross_chain_oracle",
        "offset": 0,
        "slot": "7",
        "type": "t_contract(ICrossChainOracle)8568"
      },
      {
        "astId": 8606,
        "contract": "contracts/CrossChainBridgeBacker_EVMOS_Nomad.sol:CrossChainBridgeBacker_EVMOS_Nomad",
        "label": "timelock_address",
        "offset": 0,
        "slot": "8",
        "type": "t_address"
      },
      {
        "astId": 8609,
        "contract": "contracts/CrossChainBridgeBacker_EVMOS_Nomad.sol:CrossChainBridgeBacker_EVMOS_Nomad",
        "label": "amos_array",
        "offset": 0,
        "slot": "9",
        "type": "t_array(t_address)dyn_storage"
      },
      {
        "astId": 8613,
        "contract": "contracts/CrossChainBridgeBacker_EVMOS_Nomad.sol:CrossChainBridgeBacker_EVMOS_Nomad",
        "label": "eoa_amos",
        "offset": 0,
        "slot": "10",
        "type": "t_mapping(t_address,t_bool)"
      },
      {
        "astId": 8617,
        "contract": "contracts/CrossChainBridgeBacker_EVMOS_Nomad.sol:CrossChainBridgeBacker_EVMOS_Nomad",
        "label": "amos",
        "offset": 0,
        "slot": "11",
        "type": "t_mapping(t_address,t_bool)"
      },
      {
        "astId": 8619,
        "contract": "contracts/CrossChainBridgeBacker_EVMOS_Nomad.sol:CrossChainBridgeBacker_EVMOS_Nomad",
        "label": "name",
        "offset": 0,
        "slot": "12",
        "type": "t_string_storage"
      },
      {
        "astId": 8626,
        "contract": "contracts/CrossChainBridgeBacker_EVMOS_Nomad.sol:CrossChainBridgeBacker_EVMOS_Nomad",
        "label": "bridge_addresses",
        "offset": 0,
        "slot": "13",
        "type": "t_array(t_address)3_storage"
      },
      {
        "astId": 8628,
        "contract": "contracts/CrossChainBridgeBacker_EVMOS_Nomad.sol:CrossChainBridgeBacker_EVMOS_Nomad",
        "label": "destination_address_override",
        "offset": 0,
        "slot": "16",
        "type": "t_address"
      },
      {
        "astId": 8630,
        "contract": "contracts/CrossChainBridgeBacker_EVMOS_Nomad.sol:CrossChainBridgeBacker_EVMOS_Nomad",
        "label": "non_evm_destination_address",
        "offset": 0,
        "slot": "17",
        "type": "t_string_storage"
      },
      {
        "astId": 8634,
        "contract": "contracts/CrossChainBridgeBacker_EVMOS_Nomad.sol:CrossChainBridgeBacker_EVMOS_Nomad",
        "label": "frax_lent_balances",
        "offset": 0,
        "slot": "18",
        "type": "t_mapping(t_address,t_uint256)"
      },
      {
        "astId": 8637,
        "contract": "contracts/CrossChainBridgeBacker_EVMOS_Nomad.sol:CrossChainBridgeBacker_EVMOS_Nomad",
        "label": "frax_lent_sum",
        "offset": 0,
        "slot": "19",
        "type": "t_uint256"
      },
      {
        "astId": 8640,
        "contract": "contracts/CrossChainBridgeBacker_EVMOS_Nomad.sol:CrossChainBridgeBacker_EVMOS_Nomad",
        "label": "frax_bridged_back_sum",
        "offset": 0,
        "slot": "20",
        "type": "t_uint256"
      },
      {
        "astId": 8644,
        "contract": "contracts/CrossChainBridgeBacker_EVMOS_Nomad.sol:CrossChainBridgeBacker_EVMOS_Nomad",
        "label": "fxs_lent_balances",
        "offset": 0,
        "slot": "21",
        "type": "t_mapping(t_address,t_uint256)"
      },
      {
        "astId": 8647,
        "contract": "contracts/CrossChainBridgeBacker_EVMOS_Nomad.sol:CrossChainBridgeBacker_EVMOS_Nomad",
        "label": "fxs_lent_sum",
        "offset": 0,
        "slot": "22",
        "type": "t_uint256"
      },
      {
        "astId": 8650,
        "contract": "contracts/CrossChainBridgeBacker_EVMOS_Nomad.sol:CrossChainBridgeBacker_EVMOS_Nomad",
        "label": "fxs_bridged_back_sum",
        "offset": 0,
        "slot": "23",
        "type": "t_uint256"
      },
      {
        "astId": 8654,
        "contract": "contracts/CrossChainBridgeBacker_EVMOS_Nomad.sol:CrossChainBridgeBacker_EVMOS_Nomad",
        "label": "collat_lent_balances",
        "offset": 0,
        "slot": "24",
        "type": "t_mapping(t_address,t_uint256)"
      },
      {
        "astId": 8657,
        "contract": "contracts/CrossChainBridgeBacker_EVMOS_Nomad.sol:CrossChainBridgeBacker_EVMOS_Nomad",
        "label": "collat_lent_sum",
        "offset": 0,
        "slot": "25",
        "type": "t_uint256"
      },
      {
        "astId": 8660,
        "contract": "contracts/CrossChainBridgeBacker_EVMOS_Nomad.sol:CrossChainBridgeBacker_EVMOS_Nomad",
        "label": "collat_bridged_back_sum",
        "offset": 0,
        "slot": "26",
        "type": "t_uint256"
      },
      {
        "astId": 8662,
        "contract": "contracts/CrossChainBridgeBacker_EVMOS_Nomad.sol:CrossChainBridgeBacker_EVMOS_Nomad",
        "label": "missing_decimals",
        "offset": 0,
        "slot": "27",
        "type": "t_uint256"
      },
      {
        "astId": 10405,
        "contract": "contracts/CrossChainBridgeBacker_EVMOS_Nomad.sol:CrossChainBridgeBacker_EVMOS_Nomad",
        "label": "destination",
        "offset": 0,
        "slot": "28",
        "type": "t_uint32"
      },
      {
        "astId": 10407,
        "contract": "contracts/CrossChainBridgeBacker_EVMOS_Nomad.sol:CrossChainBridgeBacker_EVMOS_Nomad",
        "label": "recipient",
        "offset": 0,
        "slot": "29",
        "type": "t_bytes32"
      }
    ],
    "types": {
      "t_address": {
        "encoding": "inplace",
        "label": "address",
        "numberOfBytes": "20"
      },
      "t_array(t_address)3_storage": {
        "base": "t_address",
        "encoding": "inplace",
        "label": "address[3]",
        "numberOfBytes": "96"
      },
      "t_array(t_address)dyn_storage": {
        "base": "t_address",
        "encoding": "dynamic_array",
        "label": "address[]",
        "numberOfBytes": "32"
      },
      "t_bool": {
        "encoding": "inplace",
        "label": "bool",
        "numberOfBytes": "1"
      },
      "t_bytes32": {
        "encoding": "inplace",
        "label": "bytes32",
        "numberOfBytes": "32"
      },
      "t_contract(CrossChainCanonical)3610": {
        "encoding": "inplace",
        "label": "contract CrossChainCanonical",
        "numberOfBytes": "20"
      },
      "t_contract(ERC20)1627": {
        "encoding": "inplace",
        "label": "contract ERC20",
        "numberOfBytes": "20"
      },
      "t_contract(IAnyswapV4ERC20)526": {
        "encoding": "inplace",
        "label": "contract IAnyswapV4ERC20",
        "numberOfBytes": "20"
      },
      "t_contract(ICrossChainOracle)8568": {
        "encoding": "inplace",
        "label": "contract ICrossChainOracle",
        "numberOfBytes": "20"
      },
      "t_mapping(t_address,t_bool)": {
        "encoding": "mapping",
        "key": "t_address",
        "label": "mapping(address => bool)",
        "numberOfBytes": "32",
        "value": "t_bool"
      },
      "t_mapping(t_address,t_uint256)": {
        "encoding": "mapping",
        "key": "t_address",
        "label": "mapping(address => uint256)",
        "numberOfBytes": "32",
        "value": "t_uint256"
      },
      "t_string_storage": {
        "encoding": "bytes",
        "label": "string",
        "numberOfBytes": "32"
      },
      "t_uint256": {
        "encoding": "inplace",
        "label": "uint256",
        "numberOfBytes": "32"
      },
      "t_uint32": {
        "encoding": "inplace",
        "label": "uint32",
        "numberOfBytes": "4"
      }
    }
  }
}