{
  "address": "0xf5597558C7b8508255Ed4b0E203cDc7101a0290a",
  "abi": [
    {
      "anonymous": false,
      "inputs": [
        {
          "indexed": true,
          "internalType": "address",
          "name": "provider",
          "type": "address"
        },
        {
          "indexed": false,
          "internalType": "uint256[]",
          "name": "tokenAmounts",
          "type": "uint256[]"
        },
        {
          "indexed": false,
          "internalType": "uint256[]",
          "name": "fees",
          "type": "uint256[]"
        },
        {
          "indexed": false,
          "internalType": "uint256",
          "name": "invariant",
          "type": "uint256"
        },
        {
          "indexed": false,
          "internalType": "uint256",
          "name": "lpTokenSupply",
          "type": "uint256"
        }
      ],
      "name": "AddLiquidity",
      "type": "event"
    },
    {
      "anonymous": false,
      "inputs": [
        {
          "indexed": false,
          "internalType": "uint256",
          "name": "newAdminFee",
          "type": "uint256"
        }
      ],
      "name": "NewAdminFee",
      "type": "event"
    },
    {
      "anonymous": false,
      "inputs": [
        {
          "indexed": false,
          "internalType": "uint256",
          "name": "newSwapFee",
          "type": "uint256"
        }
      ],
      "name": "NewSwapFee",
      "type": "event"
    },
    {
      "anonymous": false,
      "inputs": [
        {
          "indexed": true,
          "internalType": "address",
          "name": "provider",
          "type": "address"
        },
        {
          "indexed": false,
          "internalType": "uint256[]",
          "name": "tokenAmounts",
          "type": "uint256[]"
        },
        {
          "indexed": false,
          "internalType": "uint256",
          "name": "lpTokenSupply",
          "type": "uint256"
        }
      ],
      "name": "RemoveLiquidity",
      "type": "event"
    },
    {
      "anonymous": false,
      "inputs": [
        {
          "indexed": true,
          "internalType": "address",
          "name": "provider",
          "type": "address"
        },
        {
          "indexed": false,
          "internalType": "uint256[]",
          "name": "tokenAmounts",
          "type": "uint256[]"
        },
        {
          "indexed": false,
          "internalType": "uint256[]",
          "name": "fees",
          "type": "uint256[]"
        },
        {
          "indexed": false,
          "internalType": "uint256",
          "name": "invariant",
          "type": "uint256"
        },
        {
          "indexed": false,
          "internalType": "uint256",
          "name": "lpTokenSupply",
          "type": "uint256"
        }
      ],
      "name": "RemoveLiquidityImbalance",
      "type": "event"
    },
    {
      "anonymous": false,
      "inputs": [
        {
          "indexed": true,
          "internalType": "address",
          "name": "provider",
          "type": "address"
        },
        {
          "indexed": false,
          "internalType": "uint256",
          "name": "lpTokenAmount",
          "type": "uint256"
        },
        {
          "indexed": false,
          "internalType": "uint256",
          "name": "lpTokenSupply",
          "type": "uint256"
        },
        {
          "indexed": false,
          "internalType": "uint256",
          "name": "boughtId",
          "type": "uint256"
        },
        {
          "indexed": false,
          "internalType": "uint256",
          "name": "tokensBought",
          "type": "uint256"
        }
      ],
      "name": "RemoveLiquidityOne",
      "type": "event"
    },
    {
      "anonymous": false,
      "inputs": [
        {
          "indexed": true,
          "internalType": "address",
          "name": "buyer",
          "type": "address"
        },
        {
          "indexed": false,
          "internalType": "uint256",
          "name": "tokensSold",
          "type": "uint256"
        },
        {
          "indexed": false,
          "internalType": "uint256",
          "name": "tokensBought",
          "type": "uint256"
        },
        {
          "indexed": false,
          "internalType": "uint128",
          "name": "soldId",
          "type": "uint128"
        },
        {
          "indexed": false,
          "internalType": "uint128",
          "name": "boughtId",
          "type": "uint128"
        }
      ],
      "name": "TokenSwap",
      "type": "event"
    },
    {
      "inputs": [],
      "name": "MAX_ADMIN_FEE",
      "outputs": [
        {
          "internalType": "uint256",
          "name": "",
          "type": "uint256"
        }
      ],
      "stateMutability": "view",
      "type": "function"
    },
    {
      "inputs": [],
      "name": "MAX_SWAP_FEE",
      "outputs": [
        {
          "internalType": "uint256",
          "name": "",
          "type": "uint256"
        }
      ],
      "stateMutability": "view",
      "type": "function"
    },
    {
      "inputs": [],
      "name": "POOL_PRECISION_DECIMALS",
      "outputs": [
        {
          "internalType": "uint8",
          "name": "",
          "type": "uint8"
        }
      ],
      "stateMutability": "view",
      "type": "function"
    }
  ],
  "transactionHash": "0xea7e2f6dc1dfaa51cb80d5c50ede67dd8e8c586d4ec215dad2928e6345bcb7ff",
  "args": [],
  "numDeployments": 1,
  "solcInputHash": "1e86fbc99badf75c9ee8e55336df167e",
  "bytecode": "0x61479d610026600b82828239805160001a60731461001957fe5b30600052607381538281f3fe73000000000000000000000000000000000000000030146080604052600436106101255760003560e01c806371906c2c116100bc578063a5397b221161008b578063e069274211610070578063e0692742146105b0578063e7a4db81146105dc578063f3de03621461061b57610125565b8063a5397b221461055f578063ab3d8544146105a857610125565b806371906c2c1461041d57806373fd6b3e1461043a5780637d048160146104c3578063834b4910146104e657610125565b8063467e186c116100f8578063467e186c146103145780634b23603c14610344578063704672761461037a57806370703e4a146103aa57610125565b80630296ab501461012a57806324c5c7511461014857806340370edf1461019057806341b91c261461025b575b600080fd5b610132610623565b6040805160ff9092168252519081900360200190f35b81801561015457600080fd5b5061018e6004803603604081101561016b57600080fd5b508035906020013573ffffffffffffffffffffffffffffffffffffffff16610628565b005b81801561019c57600080fd5b50610249600480360360608110156101b357600080fd5b813591908101906040810160208201356401000000008111156101d557600080fd5b8201836020820111156101e757600080fd5b8035906020019184602083028401116401000000008311171561020957600080fd5b91908080602002602001604051908101604052809392919081815260200183836020028082843760009201919091525092955050913592506107ab915050565b60408051918252519081900360200190f35b81801561026757600080fd5b506102496004803603606081101561027e57600080fd5b813591908101906040810160208201356401000000008111156102a057600080fd5b8201836020820111156102b257600080fd5b803590602001918460208302840111640100000000831117156102d457600080fd5b919080806020026020016040519081016040528093929190818152602001838360200280828437600092019190915250929550509135925061122f915050565b81801561032057600080fd5b5061018e6004803603604081101561033757600080fd5b5080359060200135611ab5565b6102496004803603608081101561035a57600080fd5b5080359060ff602082013581169160408101359091169060600135611b66565b81801561038657600080fd5b5061018e6004803603604081101561039d57600080fd5b5080359060200135611bd1565b6103cd600480360360408110156103c057600080fd5b5080359060200135611c83565b60408051602080825283518183015283519192839290830191858101910280838360005b838110156104095781810151838201526020016103f1565b505050509050019250505060405180910390f35b6102496004803603602081101561043357600080fd5b5035611d80565b81801561044657600080fd5b506103cd6004803603606081101561045d57600080fd5b81359160208101359181019060608101604082013564010000000081111561048457600080fd5b82018360208201111561049657600080fd5b803590602001918460208302840111640100000000831117156104b857600080fd5b509092509050611e71565b610249600480360360408110156104d957600080fd5b5080359060200135612367565b610249600480360360608110156104fc57600080fd5b8135919081019060408101602082013564010000000081111561051e57600080fd5b82018360208201111561053057600080fd5b8035906020019184602083028401116401000000008311171561055257600080fd5b919350915035151561247d565b81801561056b57600080fd5b50610249600480360360a081101561058257600080fd5b5080359060ff6020820135811691604081013590911690606081013590608001356126e6565b610249612b61565b610249600480360360608110156105c657600080fd5b508035906020810135906040013560ff16612b69565b8180156105e857600080fd5b50610249600480360360808110156105ff57600080fd5b5080359060208101359060ff6040820135169060600135612c0d565b610249613072565b601281565b60608260070180548060200260200160405190810160405280929190818152602001828054801561068f57602002820191906000526020600020905b815473ffffffffffffffffffffffffffffffffffffffff168152600190910190602001808311610664575b5050505050905060005b81518110156107a55760008282815181106106b057fe5b6020026020010151905060006107728660090184815481106106ce57fe5b90600052602060002001548373ffffffffffffffffffffffffffffffffffffffff166370a08231306040518263ffffffff1660e01b8152600401808273ffffffffffffffffffffffffffffffffffffffff16815260200191505060206040518083038186803b15801561074057600080fd5b505afa158015610754573d6000803e3d6000fd5b505050506040513d602081101561076a57600080fd5b50519061307b565b9050801561079b5761079b73ffffffffffffffffffffffffffffffffffffffff831686836130f2565b5050600101610699565b50505050565b600060608460070180548060200260200160405190810160405280929190818152602001828054801561081457602002820191906000526020600020905b815473ffffffffffffffffffffffffffffffffffffffff1681526001909101906020018083116107e9575b50505050509050805184511461088b57604080517f08c379a000000000000000000000000000000000000000000000000000000000815260206004820181905260248201527f416d6f756e7473206d757374206d6174636820706f6f6c656420746f6b656e73604482015290519081900360640190fd5b6108936145e9565b6040518061010001604052806000815260200160008152602001600081526020016108bd88613184565b81526020018760060160009054906101000a900473ffffffffffffffffffffffffffffffffffffffff1673ffffffffffffffffffffffffffffffffffffffff168152602001600081526020018760090180548060200260200160405190810160405280929190818152602001828054801561095757602002820191906000526020600020905b815481526020019060010190808311610943575b50505050508152602001876008018054806020026020016040519081016040528092919081815260200182805480156109af57602002820191906000526020600020905b81548152602001906001019080831161099b575b50505050508152509050806080015173ffffffffffffffffffffffffffffffffffffffff166318160ddd6040518163ffffffff1660e01b815260040160206040518083038186803b158015610a0357600080fd5b505afa158015610a17573d6000803e3d6000fd5b505050506040513d6020811015610a2d57600080fd5b505160a0820181905215610a5d57610a5a610a508260c001518360e0015161318f565b82606001516132a0565b81525b6060825167ffffffffffffffff81118015610a7757600080fd5b50604051908082528060200260200182016040528015610aa1578160200160208202803683370190505b50905060005b8351811015610d525760a0830151151580610ad557506000878281518110610acb57fe5b6020026020010151115b610b4057604080517f08c379a000000000000000000000000000000000000000000000000000000000815260206004820152601e60248201527f4d75737420737570706c7920616c6c20746f6b656e7320696e20706f6f6c0000604482015290519081900360640190fd5b868181518110610b4c57fe5b6020026020010151600014610cf6576000848281518110610b6957fe5b602002602001015173ffffffffffffffffffffffffffffffffffffffff166370a08231306040518263ffffffff1660e01b8152600401808273ffffffffffffffffffffffffffffffffffffffff16815260200191505060206040518083038186803b158015610bd757600080fd5b505afa158015610beb573d6000803e3d6000fd5b505050506040513d6020811015610c0157600080fd5b50518851909150610c5e90339030908b9086908110610c1c57fe5b6020026020010151888681518110610c3057fe5b602002602001015173ffffffffffffffffffffffffffffffffffffffff16613426909392919063ffffffff16565b610cdc81868481518110610c6e57fe5b602002602001015173ffffffffffffffffffffffffffffffffffffffff166370a08231306040518263ffffffff1660e01b8152600401808273ffffffffffffffffffffffffffffffffffffffff16815260200191505060206040518083038186803b15801561074057600080fd5b888381518110610ce857fe5b602002602001018181525050505b610d33878281518110610d0557fe5b60200260200101518460c001518381518110610d1d57fe5b60200260200101516134bb90919063ffffffff16565b828281518110610d3f57fe5b6020908102919091010152600101610aa7565b50610d6e610d64828460e0015161318f565b83606001516132a0565b60208301819052825110610de357604080517f08c379a000000000000000000000000000000000000000000000000000000000815260206004820152601160248201527f442073686f756c6420696e637265617365000000000000000000000000000000604482015290519081900360640190fd5b60208201516040830152825160609067ffffffffffffffff81118015610e0857600080fd5b50604051908082528060200260200182016040528015610e32578160200160208202803683370190505b5090508260a00151600014610fd0576000610e528960040154865161352f565b905060005b8551811015610fa9576000610e9e8660000151610e988860c001518581518110610e7d57fe5b6020026020010151896020015161354a90919063ffffffff16565b906135bd565b9050610ed96402540be400610e98610ed2888681518110610ebb57fe5b60200260200101518561363e90919063ffffffff16565b869061354a565b848381518110610ee557fe5b602002602001018181525050610f49610f276402540be400610e988e60050154888781518110610f1157fe5b602002602001015161354a90919063ffffffff16565b868481518110610f3357fe5b602002602001015161307b90919063ffffffff16565b8b6009018381548110610f5857fe5b9060005260206000200181905550610f89848381518110610f7557fe5b6020026020010151868481518110610f3357fe5b858381518110610f9557fe5b602090810291909101015250600101610e57565b50610fc5610fbb848660e0015161318f565b85606001516132a0565b604085015250610fe7565b8151610fe59060098a01906020850190614644565b505b60008360a001516000141561100157506020830151611029565b835160a085015160408601516110269291610e9891611020908461307b565b9061354a565b90505b8681101561109857604080517f08c379a000000000000000000000000000000000000000000000000000000000815260206004820152601b60248201527f436f756c646e2774206d696e74206d696e207265717565737465640000000000604482015290519081900360640190fd5b836080015173ffffffffffffffffffffffffffffffffffffffff166340c10f1933836040518363ffffffff1660e01b8152600401808373ffffffffffffffffffffffffffffffffffffffff16815260200182815260200192505050600060405180830381600087803b15801561110d57600080fd5b505af1158015611121573d6000803e3d6000fd5b505050503373ffffffffffffffffffffffffffffffffffffffff167f189c623b666b1b45b83d7178f39b8c087cb09774317ca2f53c2d3c3726f222a28984876020015161117b868a60a001516134bb90919063ffffffff16565b604051808060200180602001858152602001848152602001838103835287818151815260200191508051906020019060200280838360005b838110156111cb5781810151838201526020016111b3565b50505050905001838103825286818151815260200191508051906020019060200280838360005b8381101561120a5781810151838201526020016111f2565b50505050905001965050505050505060405180910390a29450505050505b9392505050565b60006112396145e9565b60405180610100016040528060008152602001600081526020016000815260200161126387613184565b81526020018660060160009054906101000a900473ffffffffffffffffffffffffffffffffffffffff1673ffffffffffffffffffffffffffffffffffffffff16815260200160008152602001866009018054806020026020016040519081016040528092919081815260200182805480156112fd57602002820191906000526020600020905b8154815260200190600101908083116112e9575b505050505081526020018660080180548060200260200160405190810160405280929190818152602001828054801561135557602002820191906000526020600020905b815481526020019060010190808311611341575b50505050508152509050806080015173ffffffffffffffffffffffffffffffffffffffff166318160ddd6040518163ffffffff1660e01b815260040160206040518083038186803b1580156113a957600080fd5b505afa1580156113bd573d6000803e3d6000fd5b505050506040513d60208110156113d357600080fd5b505160a0820152600785018054604080516020838102820181019092528281526060939092909183018282801561144057602002820191906000526020600020905b815473ffffffffffffffffffffffffffffffffffffffff168152600190910190602001808311611415575b5050505050905080518551146114b757604080517f08c379a000000000000000000000000000000000000000000000000000000000815260206004820181905260248201527f416d6f756e74732073686f756c64206d6174636820706f6f6c20746f6b656e73604482015290519081900360640190fd5b816080015173ffffffffffffffffffffffffffffffffffffffff166370a08231336040518263ffffffff1660e01b8152600401808273ffffffffffffffffffffffffffffffffffffffff16815260200191505060206040518083038186803b15801561152257600080fd5b505afa158015611536573d6000803e3d6000fd5b505050506040513d602081101561154c57600080fd5b5051841180159061155c57508315155b6115c757604080517f08c379a000000000000000000000000000000000000000000000000000000000815260206004820152600d60248201527f3e4c502e62616c616e63654f6600000000000000000000000000000000000000604482015290519081900360640190fd5b60006115d88760040154835161352f565b90506060825167ffffffffffffffff811180156115f457600080fd5b5060405190808252806020026020018201604052801561161e578160200160208202803683370190505b5090506060835167ffffffffffffffff8111801561163b57600080fd5b50604051908082528060200260200182016040528015611665578160200160208202803683370190505b50905061168761167d8660c001518760e0015161318f565b86606001516132a0565b855260005b845181101561170b576116ec8982815181106116a457fe5b6020026020010151604051806060016040528060238152602001614745602391398860c0015184815181106116d557fe5b60200260200101516136569092919063ffffffff16565b8282815181106116f857fe5b602090810291909101015260010161168c565b5061171d61167d828760e0015161318f565b602086015260005b845181101561184a5760006117668760000151610e988960c00151858151811061174b57fe5b60200260200101518a6020015161354a90919063ffffffff16565b9050600061179084848151811061177957fe5b60200260200101518361363e90919063ffffffff16565b90506117a56402540be400610e98888461354a565b8584815181106117b157fe5b6020026020010181815250506117e96117dd6402540be400610e988f60050154898881518110610f1157fe5b858581518110610f3357fe5b8c60090184815481106117f857fe5b906000526020600020018190555061182985848151811061181557fe5b6020026020010151858581518110610f3357fe5b84848151811061183557fe5b60209081029190910101525050600101611725565b5061185c61167d828760e0015161318f565b60408601819052855160a08701516000935061188292610e98919061102090849061307b565b9050806118f057604080517f08c379a000000000000000000000000000000000000000000000000000000000815260206004820152601b60248201527f4275726e7420616d6f756e742063616e6e6f74206265207a65726f0000000000604482015290519081900360640190fd5b6118fb8160016134bb565b90508681111561196c57604080517f08c379a000000000000000000000000000000000000000000000000000000000815260206004820152601b60248201527f746f6b656e416d6f756e74203e206d61784275726e416d6f756e740000000000604482015290519081900360640190fd5b846080015173ffffffffffffffffffffffffffffffffffffffff166379cc679033836040518363ffffffff1660e01b8152600401808373ffffffffffffffffffffffffffffffffffffffff16815260200182815260200192505050600060405180830381600087803b1580156119e157600080fd5b505af11580156119f5573d6000803e3d6000fd5b5050505060005b8451811015611a5e57611a56338a8381518110611a1557fe5b6020026020010151878481518110611a2957fe5b602002602001015173ffffffffffffffffffffffffffffffffffffffff166130f29092919063ffffffff16565b6001016119fc565b503373ffffffffffffffffffffffffffffffffffffffff167f3631c28b1f9dd213e0319fb167b554d76b6c283a41143eb400a0d1adb1af17558984886020015161117b868b60a0015161307b90919063ffffffff16565b6305f5e100811115611b2857604080517f08c379a000000000000000000000000000000000000000000000000000000000815260206004820152600f60248201527f46656520697320746f6f20686967680000000000000000000000000000000000604482015290519081900360640190fd5b600482018190556040805182815290517fd88ea5155021c6f8dafa1a741e173f595cdf77ce7c17d43342131d7f06afdfe59181900360200190a15050565b6000611bc78585858589600901805480602002602001604051908101604052809291908181526020018280548015611bbd57602002820191906000526020600020905b815481526020019060010190808311611ba9575b5050505050613707565b5095945050505050565b6402540be400811115611c4557604080517f08c379a000000000000000000000000000000000000000000000000000000000815260206004820152600f60248201527f46656520697320746f6f20686967680000000000000000000000000000000000604482015290519081900360640190fd5b600582018190556040805182815290517fab599d640ca80cde2b09b128a4154a8dfe608cb80f4c9399c8b954b01fd35f389181900360200190a15050565b6060611d7783600901805480602002602001604051908101604052809291908181526020018280548015611cd657602002820191906000526020600020905b815481526020019060010190808311611cc2575b5050505050838560060160009054906101000a900473ffffffffffffffffffffffffffffffffffffffff1673ffffffffffffffffffffffffffffffffffffffff166318160ddd6040518163ffffffff1660e01b815260040160206040518083038186803b158015611d4657600080fd5b505afa158015611d5a573d6000803e3d6000fd5b505050506040513d6020811015611d7057600080fd5b50516138c9565b90505b92915050565b600080611d9d611d8f846139c0565b611d9885613184565b6132a0565b905060008360060160009054906101000a900473ffffffffffffffffffffffffffffffffffffffff16905060008173ffffffffffffffffffffffffffffffffffffffff166318160ddd6040518163ffffffff1660e01b815260040160206040518083038186803b158015611e1057600080fd5b505afa158015611e24573d6000803e3d6000fd5b505050506040513d6020811015611e3a57600080fd5b505190508015611e6457611e5a81610e9885670de0b6b3a764000061354a565b9350505050611e6c565b600093505050505b919050565b60068401546007850180546040805160208084028201810190925282815260609473ffffffffffffffffffffffffffffffffffffffff169385939192909190830182828015611ef657602002820191906000526020600020905b815473ffffffffffffffffffffffffffffffffffffffff168152600190910190602001808311611ecb575b505050505090508173ffffffffffffffffffffffffffffffffffffffff166370a08231336040518263ffffffff1660e01b8152600401808273ffffffffffffffffffffffffffffffffffffffff16815260200191505060206040518083038186803b158015611f6457600080fd5b505afa158015611f78573d6000803e3d6000fd5b505050506040513d6020811015611f8e57600080fd5b5051861115611ffe57604080517f08c379a000000000000000000000000000000000000000000000000000000000815260206004820152600d60248201527f3e4c502e62616c616e63654f6600000000000000000000000000000000000000604482015290519081900360640190fd5b8051841461206d57604080517f08c379a000000000000000000000000000000000000000000000000000000000815260206004820181905260248201527f6d696e416d6f756e7473206d757374206d6174636820706f6f6c546f6b656e73604482015290519081900360640190fd5b6060876009018054806020026020016040519081016040528092919081815260200182805480156120bd57602002820191906000526020600020905b8154815260200190600101908083116120a9575b5050505050905060008373ffffffffffffffffffffffffffffffffffffffff166318160ddd6040518163ffffffff1660e01b815260040160206040518083038186803b15801561210c57600080fd5b505afa158015612120573d6000803e3d6000fd5b505050506040513d602081101561213657600080fd5b505190506060612147838a846138c9565b905060005b81518110156122415788888281811061216157fe5b9050602002013582828151811061217457fe5b602002602001015110156121e957604080517f08c379a000000000000000000000000000000000000000000000000000000000815260206004820152601a60248201527f616d6f756e74735b695d203c206d696e416d6f756e74735b695d000000000000604482015290519081900360640190fd5b61220c8282815181106121f857fe5b6020026020010151858381518110610f3357fe5b8b600901828154811061221b57fe5b906000526020600020018190555061223933838381518110611a1557fe5b60010161214c565b50604080517f79cc6790000000000000000000000000000000000000000000000000000000008152336004820152602481018b9052905173ffffffffffffffffffffffffffffffffffffffff8716916379cc679091604480830192600092919082900301818387803b1580156122b657600080fd5b505af11580156122ca573d6000803e3d6000fd5b503392507f88d38ed598fdd809c2bf01ee49cd24b7fdabf379a83d29567952b60324d58cef91508390506122fe858d61307b565b6040518080602001838152602001828103825284818151815260200191508051906020019060200280838360005b8381101561234457818101518382015260200161232c565b50505050905001935050505060405180910390a29450505050505b949350505050565b600782015460009082106123dc57604080517f08c379a000000000000000000000000000000000000000000000000000000000815260206004820152601860248201527f546f6b656e20696e646578206f7574206f662072616e67650000000000000000604482015290519081900360640190fd5b611d778360090183815481106123ee57fe5b906000526020600020015484600701848154811061240857fe5b60009182526020918290200154604080517f70a08231000000000000000000000000000000000000000000000000000000008152306004820152905173ffffffffffffffffffffffffffffffffffffffff909216926370a0823192602480840193829003018186803b15801561074057600080fd5b60008061248986613184565b90506060866009018054806020026020016040519081016040528092919081815260200182805480156124db57602002820191906000526020600020905b8154815260200190600101908083116124c7575b5050505050905060608760080180548060200260200160405190810160405280929190818152602001828054801561253257602002820191906000526020600020905b81548152602001906001019080831161251e575b50505050509050600061254e612548848461318f565b856132a0565b905060005b83518110156125fd5786156125a15761258489898381811061257157fe5b90506020020135858381518110610d1d57fe5b84828151811061259057fe5b6020026020010181815250506125f5565b6125dc8989838181106125b057fe5b90506020020135604051806060016040528060238152602001614745602391398684815181106116d557fe5b8482815181106125e857fe5b6020026020010181815250505b600101612553565b50600061261361260d858561318f565b866132a0565b905060008a60060160009054906101000a900473ffffffffffffffffffffffffffffffffffffffff1673ffffffffffffffffffffffffffffffffffffffff166318160ddd6040518163ffffffff1660e01b815260040160206040518083038186803b15801561268157600080fd5b505afa158015612695573d6000803e3d6000fd5b505050506040513d60208110156126ab57600080fd5b5051905087156126d4576126c783610e9883611020868461307b565b965050505050505061235f565b6126c783610e9883611020838761307b565b600080866007018660ff16815481106126fb57fe5b60009182526020918290200154604080517f70a08231000000000000000000000000000000000000000000000000000000008152336004820152905173ffffffffffffffffffffffffffffffffffffffff909216935083926370a0823192602480840193829003018186803b15801561277357600080fd5b505afa158015612787573d6000803e3d6000fd5b505050506040513d602081101561279d57600080fd5b505184111561280d57604080517f08c379a000000000000000000000000000000000000000000000000000000000815260206004820152601d60248201527f43616e6e6f742073776170206d6f7265207468616e20796f75206f776e000000604482015290519081900360640190fd5b60008173ffffffffffffffffffffffffffffffffffffffff166370a08231306040518263ffffffff1660e01b8152600401808273ffffffffffffffffffffffffffffffffffffffff16815260200191505060206040518083038186803b15801561287657600080fd5b505afa15801561288a573d6000803e3d6000fd5b505050506040513d60208110156128a057600080fd5b505190506128c673ffffffffffffffffffffffffffffffffffffffff8316333088613426565b612931818373ffffffffffffffffffffffffffffffffffffffff166370a08231306040518263ffffffff1660e01b8152600401808273ffffffffffffffffffffffffffffffffffffffff16815260200191505060206040518083038186803b15801561074057600080fd5b9450505060008060608860090180548060200260200160405190810160405280929190818152602001828054801561298857602002820191906000526020600020905b815481526020019060010190808311612974575b5050505050905061299c8989898985613707565b909350915084831015612a1057604080517f08c379a000000000000000000000000000000000000000000000000000000000815260206004820181905260248201527f53776170206469646e277420726573756c7420696e206d696e20746f6b656e73604482015290519081900360640190fd5b6000612a528a6008018960ff1681548110612a2757fe5b9060005260206000200154610e986402540be400610e988e600501548861354a90919063ffffffff16565b9050612a6787838b60ff1681518110610d1d57fe5b8a6009018a60ff1681548110612a7957fe5b9060005260206000200181905550612aa481612a9e86858c60ff1681518110610f3357fe5b9061307b565b8a6009018960ff1681548110612ab657fe5b9060005260206000200181905550612b0433858c6007018b60ff1681548110612adb57fe5b60009182526020909120015473ffffffffffffffffffffffffffffffffffffffff1691906130f2565b604080518881526020810186905260ff808c16828401528a166060820152905133917fc6c1e0630dbe9130cc068028486c0d118ddcea348550819defd5cb8c257f8a38919081900360800190a25091925050505b95945050505050565b6305f5e10081565b600080611bc78585858860060160009054906101000a900473ffffffffffffffffffffffffffffffffffffffff1673ffffffffffffffffffffffffffffffffffffffff166318160ddd6040518163ffffffff1660e01b815260040160206040518083038186803b158015612bdc57600080fd5b505afa158015612bf0573d6000803e3d6000fd5b505050506040513d6020811015612c0657600080fd5b5051613a70565b60068401546007850180546040805160208084028201810190925282815260009473ffffffffffffffffffffffffffffffffffffffff16936060939192909190830182828015612c9357602002820191906000526020600020905b815473ffffffffffffffffffffffffffffffffffffffff168152600190910190602001808311612c68575b505050505090508173ffffffffffffffffffffffffffffffffffffffff166370a08231336040518263ffffffff1660e01b8152600401808273ffffffffffffffffffffffffffffffffffffffff16815260200191505060206040518083038186803b158015612d0157600080fd5b505afa158015612d15573d6000803e3d6000fd5b505050506040513d6020811015612d2b57600080fd5b5051861115612d9b57604080517f08c379a000000000000000000000000000000000000000000000000000000000815260206004820152600d60248201527f3e4c502e62616c616e63654f6600000000000000000000000000000000000000604482015290519081900360640190fd5b80518560ff1610612e0d57604080517f08c379a000000000000000000000000000000000000000000000000000000000815260206004820152600f60248201527f546f6b656e206e6f7420666f756e640000000000000000000000000000000000604482015290519081900360640190fd5b60008273ffffffffffffffffffffffffffffffffffffffff166318160ddd6040518163ffffffff1660e01b815260040160206040518083038186803b158015612e5557600080fd5b505afa158015612e69573d6000803e3d6000fd5b505050506040513d6020811015612e7f57600080fd5b50519050600080612e928a8a8a86613a70565b9150915086821015612f0557604080517f08c379a000000000000000000000000000000000000000000000000000000000815260206004820152600e60248201527f6479203c206d696e416d6f756e74000000000000000000000000000000000000604482015290519081900360640190fd5b612f5d612f32612f2b6402540be400610e988e600501548661354a90919063ffffffff16565b84906134bb565b8b6009018a60ff1681548110612f4457fe5b906000526020600020015461307b90919063ffffffff16565b8a6009018960ff1681548110612f6f57fe5b6000918252602082200191909155604080517f79cc6790000000000000000000000000000000000000000000000000000000008152336004820152602481018c9052905173ffffffffffffffffffffffffffffffffffffffff8816926379cc6790926044808201939182900301818387803b158015612fed57600080fd5b505af1158015613001573d6000803e3d6000fd5b505050506130193383868b60ff1681518110611a2957fe5b604080518a81526020810185905260ff8a168183015260608101849052905133917f43fb02998f4e03da2e0e6fff53fdbf0c40a9f45f145dc377fc30615d7d7a8a64919081900360800190a25098975050505050505050565b6402540be40081565b6000828211156130ec57604080517f08c379a000000000000000000000000000000000000000000000000000000000815260206004820152601e60248201527f536166654d6174683a207375627472616374696f6e206f766572666c6f770000604482015290519081900360640190fd5b50900390565b6040805173ffffffffffffffffffffffffffffffffffffffff8416602482015260448082018490528251808303909101815260649091019091526020810180517bffffffffffffffffffffffffffffffffffffffffffffffffffffffff167fa9059cbb0000000000000000000000000000000000000000000000000000000017905261317f908490613ad2565b505050565b6000611d7a82613baa565b8151815160609190811461320457604080517f08c379a000000000000000000000000000000000000000000000000000000000815260206004820152601f60248201527f42616c616e636573206d757374206d61746368206d756c7469706c6965727300604482015290519081900360640190fd5b60608167ffffffffffffffff8111801561321d57600080fd5b50604051908082528060200260200182016040528015613247578160200160208202803683370190505b50905060005b828110156132975761327885828151811061326457fe5b6020026020010151878381518110610f1157fe5b82828151811061328457fe5b602090810291909101015260010161324d565b50949350505050565b815160009081805b828110156132e0576132d68682815181106132bf57fe5b6020026020010151836134bb90919063ffffffff16565b91506001016132a8565b50806132f157600092505050611d7a565b600081816132ff878661354a565b905060005b6101008110156133be578260005b878110156133415761333761332d898d8481518110610f1157fe5b610e98848861354a565b9150600101613312565b50929350839261339561337561335c836110208b60016134bb565b61336f6064610e98896110208a8461307b565b906134bb565b610e9886611020613386868d61354a565b61336f6064610e988b8f61354a565b93506133a18486613c3f565b156133b55783975050505050505050611d7a565b50600101613304565b50604080517f08c379a000000000000000000000000000000000000000000000000000000000815260206004820152601360248201527f4420646f6573206e6f7420636f6e766572676500000000000000000000000000604482015290519081900360640190fd5b6040805173ffffffffffffffffffffffffffffffffffffffff80861660248301528416604482015260648082018490528251808303909101815260849091019091526020810180517bffffffffffffffffffffffffffffffffffffffffffffffffffffffff167f23b872dd000000000000000000000000000000000000000000000000000000001790526107a5908590613ad2565b600082820183811015611d7757604080517f08c379a000000000000000000000000000000000000000000000000000000000815260206004820152601b60248201527f536166654d6174683a206164646974696f6e206f766572666c6f770000000000604482015290519081900360640190fd5b6000611d77613544600461102085600161307b565b610e9885855b60008261355957506000611d7a565b8282028284828161356657fe5b0414611d77576040517f08c379a00000000000000000000000000000000000000000000000000000000081526004018080602001828103825260218152602001806146fa6021913960400191505060405180910390fd5b600080821161362d57604080517f08c379a000000000000000000000000000000000000000000000000000000000815260206004820152601a60248201527f536166654d6174683a206469766973696f6e206279207a65726f000000000000604482015290519081900360640190fd5b81838161363657fe5b049392505050565b6000818311156136515750808203611d7a565b500390565b600081848411156136ff576040517f08c379a00000000000000000000000000000000000000000000000000000000081526004018080602001828103825283818151815260200191508051906020019080838360005b838110156136c45781810151838201526020016136ac565b50505050905090810190601f1680156136f15780820380516001836020036101000a031916815260200191505b509250505060405180910390fd5b505050900390565b60008060608760080180548060200260200160405190810160405280929190818152602001828054801561375a57602002820191906000526020600020905b815481526020019060010190808311613746575b50505050509050606061376d858361318f565b905080518860ff16108015613785575080518760ff16105b6137f057604080517f08c379a000000000000000000000000000000000000000000000000000000000815260206004820152601860248201527f546f6b656e20696e646578206f7574206f662072616e67650000000000000000604482015290519081900360640190fd5b6000613835828a60ff168151811061380457fe5b602002602001015161336f858c60ff168151811061381e57fe5b60200260200101518a61354a90919063ffffffff16565b9050600061384e6138458c613184565b8b8b8587613c56565b90506138686001612a9e83868d60ff1681518110610f3357fe5b955061388a6402540be400610e988d600401548961354a90919063ffffffff16565b94506138b9848a60ff168151811061389e57fe5b6020026020010151610e98878961307b90919063ffffffff16565b9550505050509550959350505050565b60608183111561393a57604080517f08c379a000000000000000000000000000000000000000000000000000000000815260206004820152601a60248201527f43616e6e6f742065786365656420746f74616c20737570706c79000000000000604482015290519081900360640190fd5b6060845167ffffffffffffffff8111801561395457600080fd5b5060405190808252806020026020018201604052801561397e578160200160208202803683370190505b50905060005b8551811015613297576139a184610e9887898581518110610f1157fe5b8282815181106139ad57fe5b6020908102919091010152600101613984565b6060611d7a82600901805480602002602001604051908101604052809291908181526020018280548015613a1357602002820191906000526020600020905b8154815260200190600101908083116139ff575b505050505083600801805480602002602001604051908101604052809291908181526020018280548015613a6657602002820191906000526020600020905b815481526020019060010190808311613a52575b505050505061318f565b6000806000806000613a8489888a89613eea565b8093508194508295505050506000613ac184612a9e8c6008018b60ff1681548110613aab57fe5b600091825260209091200154610e98868861307b565b939a93995092975050505050505050565b6060613b34826040518060400160405280602081526020017f5361666545524332303a206c6f772d6c6576656c2063616c6c206661696c65648152508573ffffffffffffffffffffffffffffffffffffffff166142199092919063ffffffff16565b80519091501561317f57808060200190516020811015613b5357600080fd5b505161317f576040517f08c379a000000000000000000000000000000000000000000000000000000000815260040180806020018281038252602a81526020018061471b602a913960400191505060405180910390fd5b600381015460018201546000919042821115613c36576002840154845480831115613c0857613bfd613bf6613bdf868561307b565b610e98613bec428761307b565b611020888761307b565b82906134bb565b945050505050611e6c565b613bfd613c2f613c18868561307b565b610e98613c25428761307b565b611020868961307b565b829061307b565b9150611e6c9050565b60006001613c4d848461363e565b11159392505050565b805160009060ff8681169086161415613cd057604080517f08c379a000000000000000000000000000000000000000000000000000000000815260206004820152601d60248201527f43616e277420636f6d7061726520746f6b656e20746f20697473656c66000000604482015290519081900360640190fd5b808660ff16108015613ce45750808560ff16105b613d4f57604080517f08c379a000000000000000000000000000000000000000000000000000000000815260206004820152601660248201527f546f6b656e73206d75737420626520696e20706f6f6c00000000000000000000604482015290519081900360640190fd5b6000613d5b84896132a0565b905080600080613d6b858c61354a565b90506000805b86811015613de4578b60ff16811415613d8c57899150613db6565b8a60ff168114613db157888181518110613da257fe5b60200260200101519150613db6565b613ddc565b613dc084836134bb565b9350613dd9613dcf838961354a565b610e98878961354a565b94505b600101613d71565b50613e01613df2838861354a565b610e986064611020888a61354a565b93506000613e1e613e1784610e9889606461354a565b85906134bb565b9050600086815b610100811015613e82579091508190613e58613e4a8a612a9e8761336f87600261354a565b610e988a61336f868061354a565b9150613e648284613c3f565b15613e7a57509850612b58975050505050505050565b600101613e25565b50604080517f08c379a000000000000000000000000000000000000000000000000000000000815260206004820152601e60248201527f417070726f78696d6174696f6e20646964206e6f7420636f6e76657267650000604482015290519081900360640190fd5b60008060006060613efa886139c0565b905080518760ff1610613f6e57604080517f08c379a000000000000000000000000000000000000000000000000000000000815260206004820152601860248201527f546f6b656e20696e646578206f7574206f662072616e67650000000000000000604482015290519081900360640190fd5b613f7661468f565b6040518060a001604052806000815260200160008152602001600081526020016000815260200160008152509050613fad89613184565b60808201819052613fbf9083906132a0565b808252613fdf90613fd7908890610e98908b9061354a565b82519061307b565b60208201528151829060ff8a16908110613ff557fe5b602002602001015187111561406b57604080517f08c379a000000000000000000000000000000000000000000000000000000000815260206004820152601a60248201527f5769746864726177206578636565647320617661696c61626c65000000000000604482015290519081900360640190fd5b61407f816080015189848460200151614228565b6040820152815160609067ffffffffffffffff8111801561409f57600080fd5b506040519080825280602002602001820160405280156140c9578160200160208202803683370190505b5090506140db8a60040154845161352f565b606083015260005b835181101561418f5760008482815181106140fa57fe5b6020026020010151905061416f613c2f6402540be400610e9887606001518f60ff16871461414857885160208a01516141439161413c91610e98908a9061354a565b879061307b565b611020565b6110208960400151612a9e8b60000151610e988d602001518b61354a90919063ffffffff16565b83838151811061417b57fe5b6020908102919091010152506001016140e3565b5060006141b86141a984608001518c858760200151614228565b838c60ff1681518110610f3357fe5b90506141e68b6008018b60ff16815481106141cf57fe5b600091825260209091200154610e9883600161307b565b9050808360400151858c60ff16815181106141fd57fe5b6020026020010151965096509650505050509450945094915050565b606061235f84846000856143a8565b815160009060ff8516811161429e57604080517f08c379a000000000000000000000000000000000000000000000000000000000815260206004820152600f60248201527f546f6b656e206e6f7420666f756e640000000000000000000000000000000000604482015290519081900360640190fd5b826000806142ac898561354a565b905060005b84811015614313578860ff16811461430b576142e98882815181106142d257fe5b6020026020010151846134bb90919063ffffffff16565b92506143086142fe868a8481518110610f1157fe5b610e98868a61354a565b93505b6001016142b1565b50614330614321828661354a565b610e986064611020878b61354a565b92506000614346612f2b83610e988a606461354a565b9050600087815b610100811015613e825790915081906143806143728b612a9e8761336f87600261354a565b610e988961336f868061354a565b915061438c8284613c3f565b156143a05750965061235f95505050505050565b60010161434d565b606082471015614403576040517f08c379a00000000000000000000000000000000000000000000000000000000081526004018080602001828103825260268152602001806146d46026913960400191505060405180910390fd5b61440c85614563565b61447757604080517f08c379a000000000000000000000000000000000000000000000000000000000815260206004820152601d60248201527f416464726573733a2063616c6c20746f206e6f6e2d636f6e7472616374000000604482015290519081900360640190fd5b600060608673ffffffffffffffffffffffffffffffffffffffff1685876040518082805190602001908083835b602083106144e157805182527fffffffffffffffffffffffffffffffffffffffffffffffffffffffffffffffe090920191602091820191016144a4565b6001836020036101000a03801982511681845116808217855250505050505090500191505060006040518083038185875af1925050503d8060008114614543576040519150601f19603f3d011682016040523d82523d6000602084013e614548565b606091505b5091509150614558828286614569565b979650505050505050565b3b151590565b60608315614578575081611228565b8251156145885782518084602001fd5b6040517f08c379a00000000000000000000000000000000000000000000000000000000081526020600482018181528451602484015284518593919283926044019190850190808383600083156136c45781810151838201526020016136ac565b60405180610100016040528060008152602001600081526020016000815260200160008152602001600073ffffffffffffffffffffffffffffffffffffffff1681526020016000815260200160608152602001606081525090565b82805482825590600052602060002090810192821561467f579160200282015b8281111561467f578251825591602001919060010190614664565b5061468b9291506146be565b5090565b6040518060a0016040528060008152602001600081526020016000815260200160008152602001600081525090565b5b8082111561468b57600081556001016146bf56fe416464726573733a20696e73756666696369656e742062616c616e636520666f722063616c6c536166654d6174683a206d756c7469706c69636174696f6e206f766572666c6f775361666545524332303a204552433230206f7065726174696f6e20646964206e6f74207375636365656443616e6e6f74207769746864726177206d6f7265207468616e20617661696c61626c65a2646970667358221220d777452b1be8ed673d4e92c5f2461d91be7113070207107f60453f9c4efa00f264736f6c634300060c0033",
  "devdoc": {
    "details": "Contracts relying on this library must initialize SwapUtils.Swap struct then use this library for SwapUtils.Swap struct. Note that this library contains both functions called by users and admins. Admin functions should be protected within contracts using this library.",
    "kind": "dev",
    "methods": {
      "addLiquidity(SwapUtils.Swap storage,uint256[],uint256)": {
        "params": {
          "amounts": "the amounts of each token to add, in their native precision",
          "minToMint": "the minimum LP tokens adding this amount of liquidity should mint, otherwise revert. Handy for front-running mitigation allowed addresses. If the pool is not in the guarded launch phase, this parameter will be ignored.",
          "self": "Swap struct to read from and write to"
        },
        "returns": {
          "_0": "amount of LP token user received"
        }
      },
      "calculateRemoveLiquidity(SwapUtils.Swap storage,uint256)": {
        "params": {
          "amount": "the amount of LP tokens that would to be burned on withdrawal"
        },
        "returns": {
          "_0": "array of amounts of tokens user will receive"
        }
      },
      "calculateSwap(SwapUtils.Swap storage,uint8,uint8,uint256)": {
        "params": {
          "dx": "the number of tokens to sell. If the token charges a fee on transfers, use the amount that gets transferred after the fee.",
          "self": "Swap struct to read from",
          "tokenIndexFrom": "the token to sell",
          "tokenIndexTo": "the token to buy"
        },
        "returns": {
          "dy": "the number of tokens the user will get"
        }
      },
      "calculateTokenAmount(SwapUtils.Swap storage,uint256[],bool)": {
        "details": "This shouldn't be used outside frontends for user estimates.",
        "params": {
          "amounts": "an array of token amounts to deposit or withdrawal, corresponding to pooledTokens. The amount should be in each pooled token's native precision. If a token charges a fee on transfers, use the amount that gets transferred after the fee.",
          "deposit": "whether this is a deposit or a withdrawal",
          "self": "Swap struct to read from"
        },
        "returns": {
          "_0": "if deposit was true, total amount of lp token that will be minted and if deposit was false, total amount of lp token that will be burned"
        }
      },
      "calculateWithdrawOneToken(SwapUtils.Swap storage,uint256,uint8)": {
        "params": {
          "self": "Swap struct to read from",
          "tokenAmount": "the amount to withdraw in the pool's precision",
          "tokenIndex": "which token will be withdrawn"
        },
        "returns": {
          "_0": "the amount of token user will receive"
        }
      },
      "getAdminBalance(SwapUtils.Swap storage,uint256)": {
        "params": {
          "index": "Index of the pooled token",
          "self": "Swap struct to read from"
        },
        "returns": {
          "_0": "admin balance in the token's precision"
        }
      },
      "getVirtualPrice(SwapUtils.Swap storage)": {
        "params": {
          "self": "Swap struct to read from"
        },
        "returns": {
          "_0": "the virtual price, scaled to precision of POOL_PRECISION_DECIMALS"
        }
      },
      "removeLiquidity(SwapUtils.Swap storage,uint256,uint256[])": {
        "details": "Liquidity can always be removed, even when the pool is paused.",
        "params": {
          "amount": "the amount of LP tokens to burn",
          "minAmounts": "the minimum amounts of each token in the pool acceptable for this burn. Useful as a front-running mitigation",
          "self": "Swap struct to read from and write to"
        },
        "returns": {
          "_0": "amounts of tokens the user received"
        }
      },
      "removeLiquidityImbalance(SwapUtils.Swap storage,uint256[],uint256)": {
        "params": {
          "amounts": "how much of each token to withdraw",
          "maxBurnAmount": "the max LP token provider is willing to pay to remove liquidity. Useful as a front-running mitigation.",
          "self": "Swap struct to read from and write to"
        },
        "returns": {
          "_0": "actual amount of LP tokens burned in the withdrawal"
        }
      },
      "removeLiquidityOneToken(SwapUtils.Swap storage,uint256,uint8,uint256)": {
        "params": {
          "minAmount": "the minimum amount to withdraw, otherwise revert",
          "self": "Swap struct to read from and write to",
          "tokenAmount": "the amount of the lp tokens to burn",
          "tokenIndex": "the index of the token you want to receive"
        },
        "returns": {
          "_0": "amount chosen token that user received"
        }
      },
      "setAdminFee(SwapUtils.Swap storage,uint256)": {
        "details": "adminFee cannot be higher than 100% of the swap fee",
        "params": {
          "newAdminFee": "new admin fee to be applied on future transactions",
          "self": "Swap struct to update"
        }
      },
      "setSwapFee(SwapUtils.Swap storage,uint256)": {
        "details": "fee cannot be higher than 1% of each swap",
        "params": {
          "newSwapFee": "new swap fee to be applied on future transactions",
          "self": "Swap struct to update"
        }
      },
      "swap(SwapUtils.Swap storage,uint8,uint8,uint256,uint256)": {
        "params": {
          "dx": "the amount of tokens the user wants to sell",
          "minDy": "the min amount the user would like to receive, or revert.",
          "self": "Swap struct to read from and write to",
          "tokenIndexFrom": "the token the user wants to sell",
          "tokenIndexTo": "the token the user wants to buy"
        },
        "returns": {
          "_0": "amount of token user received on swap"
        }
      },
      "withdrawAdminFees(SwapUtils.Swap storage,address)": {
        "params": {
          "self": "Swap struct to withdraw fees from",
          "to": "Address to send the fees to"
        }
      }
    },
    "title": "SwapUtils library",
    "version": 1
  },
  "userdoc": {
    "kind": "user",
    "methods": {
      "addLiquidity(SwapUtils.Swap storage,uint256[],uint256)": {
        "notice": "Add liquidity to the pool"
      },
      "calculateRemoveLiquidity(SwapUtils.Swap storage,uint256)": {
        "notice": "A simple method to calculate amount of each underlying tokens that is returned upon burning given amount of LP tokens"
      },
      "calculateSwap(SwapUtils.Swap storage,uint8,uint8,uint256)": {
        "notice": "Externally calculates a swap between two tokens."
      },
      "calculateTokenAmount(SwapUtils.Swap storage,uint256[],bool)": {
        "notice": "A simple method to calculate prices from deposits or withdrawals, excluding fees but including slippage. This is helpful as an input into the various \"min\" parameters on calls to fight front-running"
      },
      "calculateWithdrawOneToken(SwapUtils.Swap storage,uint256,uint8)": {
        "notice": "Calculate the dy, the amount of selected token that user receives and the fee of withdrawing in one token"
      },
      "getAdminBalance(SwapUtils.Swap storage,uint256)": {
        "notice": "return accumulated amount of admin fees of the token with given index"
      },
      "getVirtualPrice(SwapUtils.Swap storage)": {
        "notice": "Get the virtual price, to help calculate profit"
      },
      "removeLiquidity(SwapUtils.Swap storage,uint256,uint256[])": {
        "notice": "Burn LP tokens to remove liquidity from the pool."
      },
      "removeLiquidityImbalance(SwapUtils.Swap storage,uint256[],uint256)": {
        "notice": "Remove liquidity from the pool, weighted differently than the pool's current balances."
      },
      "removeLiquidityOneToken(SwapUtils.Swap storage,uint256,uint8,uint256)": {
        "notice": "Remove liquidity from the pool all in one token."
      },
      "setAdminFee(SwapUtils.Swap storage,uint256)": {
        "notice": "Sets the admin fee"
      },
      "setSwapFee(SwapUtils.Swap storage,uint256)": {
        "notice": "update the swap fee"
      },
      "swap(SwapUtils.Swap storage,uint8,uint8,uint256,uint256)": {
        "notice": "swap two tokens in the pool"
      },
      "withdrawAdminFees(SwapUtils.Swap storage,address)": {
        "notice": "withdraw all admin fees to a given address"
      }
    },
    "notice": "A library to be used within Swap.sol. Contains functions responsible for custody and AMM functionalities.",
    "version": 1
  },
  "storageLayout": {
    "storage": [],
    "types": null
  }
}